{
  "contractName": "Buying",
  "abi": [
    {
      "constant": true,
      "inputs": [
        {
          "name": "",
          "type": "uint256"
        }
      ],
      "name": "owners",
      "outputs": [
        {
          "name": "",
          "type": "address"
        }
      ],
      "payable": false,
      "stateMutability": "view",
      "type": "function"
    },
    {
      "constant": true,
      "inputs": [
        {
          "name": "",
          "type": "uint256"
        }
      ],
      "name": "ownersToLand",
      "outputs": [
        {
          "name": "",
          "type": "address"
        }
      ],
      "payable": false,
      "stateMutability": "view",
      "type": "function"
    },
    {
      "anonymous": false,
      "inputs": [
        {
          "indexed": false,
          "name": "landId",
          "type": "uint256"
        }
      ],
      "name": "bought",
      "type": "event"
    },
    {
      "constant": false,
      "inputs": [
        {
          "name": "landId",
          "type": "uint256"
        }
      ],
      "name": "buy",
      "outputs": [
        {
          "name": "",
          "type": "uint256"
        }
      ],
      "payable": false,
      "stateMutability": "nonpayable",
      "type": "function"
    },
    {
      "constant": true,
      "inputs": [],
      "name": "getOwners",
      "outputs": [
        {
          "name": "",
          "type": "address[16]"
        }
      ],
      "payable": false,
      "stateMutability": "view",
      "type": "function"
    }
  ],
  "bytecode": "0x6060604052341561000f57600080fd5b6104078061001e6000396000f300606060405260043610610062576000357c0100000000000000000000000000000000000000000000000000000000900463ffffffff168063025e7c2714610067578063a06b0593146100ca578063a0e67e2b1461012d578063d96a094a1461017e575b600080fd5b341561007257600080fd5b61008860048080359060200190919050506101b5565b604051808273ffffffffffffffffffffffffffffffffffffffff1673ffffffffffffffffffffffffffffffffffffffff16815260200191505060405180910390f35b34156100d557600080fd5b6100eb60048080359060200190919050506101ea565b604051808273ffffffffffffffffffffffffffffffffffffffff1673ffffffffffffffffffffffffffffffffffffffff16815260200191505060405180910390f35b341561013857600080fd5b61014061021d565b6040518082601060200280838360005b8381101561016b578082015181840152602081019050610150565b5050505090500191505060405180910390f35b341561018957600080fd5b61019f600480803590602001909190505061029e565b6040518082815260200191505060405180910390f35b6000816010811015156101c457fe5b016000915054906101000a900473ffffffffffffffffffffffffffffffffffffffff1681565b60106020528060005260406000206000915054906101000a900473ffffffffffffffffffffffffffffffffffffffff1681565b61022561039c565b6000601080602002604051908101604052809291908260108015610294576020028201915b8160009054906101000a900473ffffffffffffffffffffffffffffffffffffffff1673ffffffffffffffffffffffffffffffffffffffff168152602001906001019080831161024a575b5050505050905090565b60008082101580156102b15750600f8211155b15156102bc57600080fd5b336000836010811015156102cc57fe5b0160006101000a81548173ffffffffffffffffffffffffffffffffffffffff021916908373ffffffffffffffffffffffffffffffffffffffff160217905550336010600084815260200190815260200160002060006101000a81548173ffffffffffffffffffffffffffffffffffffffff021916908373ffffffffffffffffffffffffffffffffffffffff1602179055507ffbbbd65b405730e3b812d7076cd97bbe3a333d026eb9fd18517ee2ae97c1ceec826040518082815260200191505060405180910390a1819050919050565b610200604051908101604052806010905b600073ffffffffffffffffffffffffffffffffffffffff168152602001906001900390816103ad57905050905600a165627a7a72305820957885bb114b84106aa8002dd7087e88ac8b6e8433d910255fa0069b08cd5af40029",
  "source": "pragma solidity ^0.4.2;\r\n\r\n// Declare contract\r\ncontract Buying {\r\n    // Solidity has a unique type called an address. \r\n    //Addresses are Ethereum addresses, stored as 20 byte values. \r\n    address[16] public owners; // Array of eth addresses, fixed length of 16\r\n    mapping(uint => address) public ownersToLand;\r\n\r\n    event bought(uint landId);\r\n\r\n    function buy(uint landId) public returns (uint) {\r\n        require(landId >= 0 && landId <= 15); // Requires petId to be inbetween 0 - 15\r\n        //require(ownersToLand[landId] == 0x0);\r\n\r\n        owners[landId] = msg.sender; // Address of the person/smart contract that called this func\r\n        ownersToLand[landId] = msg.sender;\r\n        bought(landId);\r\n        return landId;\r\n    }\r\n\r\n    function getOwners() public view returns (address[16]) {\r\n        return owners;\r\n    }\r\n}",
  "sourcePath": "C:\\Users\\heads\\Documents\\Research\\Dapps\\petshop\\contracts\\Buying.sol",
  "compiler": {
    "name": "solc",
    "version": "0.4.19+commit.c4cbbb05.Emscripten.clang"
  },
  "schemaVersion": "2.0.0",
  "updatedAt": "2018-04-09T21:13:15.453Z"
}