{
  "contractName": "ZombieHelper",
  "abi": [
    {
      "constant": false,
      "inputs": [
        {
          "name": "_zombieId",
          "type": "uint256"
        },
        {
          "name": "_kittyId",
          "type": "uint256"
        }
      ],
      "name": "feedOnKitty",
      "outputs": [],
      "payable": false,
      "stateMutability": "nonpayable",
      "type": "function"
    },
    {
      "constant": true,
      "inputs": [
        {
          "name": "",
          "type": "uint256"
        }
      ],
      "name": "zombies",
      "outputs": [
        {
          "name": "name",
          "type": "string"
        },
        {
          "name": "dna",
          "type": "uint256"
        },
        {
          "name": "level",
          "type": "uint32"
        },
        {
          "name": "readyTime",
          "type": "uint32"
        }
      ],
      "payable": false,
      "stateMutability": "view",
      "type": "function"
    },
    {
      "constant": true,
      "inputs": [
        {
          "name": "",
          "type": "uint256"
        }
      ],
      "name": "zombieToOwner",
      "outputs": [
        {
          "name": "",
          "type": "address"
        }
      ],
      "payable": false,
      "stateMutability": "view",
      "type": "function"
    },
    {
      "constant": false,
      "inputs": [
        {
          "name": "_address",
          "type": "address"
        }
      ],
      "name": "setKittyContractAddress",
      "outputs": [],
      "payable": false,
      "stateMutability": "nonpayable",
      "type": "function"
    },
    {
      "constant": false,
      "inputs": [
        {
          "name": "_zombieId",
          "type": "uint256"
        },
        {
          "name": "_targetDna",
          "type": "uint256"
        },
        {
          "name": "_species",
          "type": "string"
        }
      ],
      "name": "feedAndMultiply",
      "outputs": [],
      "payable": false,
      "stateMutability": "nonpayable",
      "type": "function"
    },
    {
      "constant": false,
      "inputs": [
        {
          "name": "_name",
          "type": "string"
        }
      ],
      "name": "createRandomZombie",
      "outputs": [],
      "payable": false,
      "stateMutability": "nonpayable",
      "type": "function"
    },
    {
      "constant": true,
      "inputs": [],
      "name": "owner",
      "outputs": [
        {
          "name": "",
          "type": "address"
        }
      ],
      "payable": false,
      "stateMutability": "view",
      "type": "function"
    },
    {
      "constant": false,
      "inputs": [
        {
          "name": "newOwner",
          "type": "address"
        }
      ],
      "name": "transferOwnership",
      "outputs": [],
      "payable": false,
      "stateMutability": "nonpayable",
      "type": "function"
    },
    {
      "anonymous": false,
      "inputs": [
        {
          "indexed": false,
          "name": "zombieId",
          "type": "uint256"
        },
        {
          "indexed": false,
          "name": "name",
          "type": "string"
        },
        {
          "indexed": false,
          "name": "dna",
          "type": "uint256"
        }
      ],
      "name": "NewZombie",
      "type": "event"
    },
    {
      "anonymous": false,
      "inputs": [
        {
          "indexed": true,
          "name": "previousOwner",
          "type": "address"
        },
        {
          "indexed": true,
          "name": "newOwner",
          "type": "address"
        }
      ],
      "name": "OwnershipTransferred",
      "type": "event"
    },
    {
      "constant": false,
      "inputs": [
        {
          "name": "_zombieId",
          "type": "uint256"
        },
        {
          "name": "_newName",
          "type": "string"
        }
      ],
      "name": "changeName",
      "outputs": [],
      "payable": false,
      "stateMutability": "nonpayable",
      "type": "function"
    },
    {
      "constant": false,
      "inputs": [
        {
          "name": "_zombieId",
          "type": "uint256"
        },
        {
          "name": "_newDna",
          "type": "uint256"
        }
      ],
      "name": "changeDna",
      "outputs": [],
      "payable": false,
      "stateMutability": "nonpayable",
      "type": "function"
    },
    {
      "constant": true,
      "inputs": [
        {
          "name": "_owner",
          "type": "address"
        }
      ],
      "name": "getZombiesByOwner",
      "outputs": [
        {
          "name": "",
          "type": "uint256[]"
        }
      ],
      "payable": false,
      "stateMutability": "view",
      "type": "function"
    }
  ],
  "bytecode": "0x60606040526010600155600154600a0a60025562015180600355336000806101000a81548173ffffffffffffffffffffffffffffffffffffffff021916908373ffffffffffffffffffffffffffffffffffffffff1602179055506112df806100686000396000f3006060604052600436106100af576000357c0100000000000000000000000000000000000000000000000000000000900463ffffffff16806317a7f4cc146100b45780632052465e146100e05780634412e104146101c6578063528b7b8f146102545780635f4623f1146102b75780635faf2880146102f05780636b0bfc801461031c5780637bff0a011461038b5780638da5cb5b146103e8578063c39cbef11461043d578063f2fde38b14610474575b600080fd5b34156100bf57600080fd5b6100de60048080359060200190919080359060200190919050506104ad565b005b34156100eb57600080fd5b610101600480803590602001909190505061061a565b60405180806020018581526020018463ffffffff1663ffffffff1681526020018363ffffffff1663ffffffff1681526020018281038252868181546001816001161561010002031660029004815260200191508054600181600116156101000203166002900480156101b45780601f10610189576101008083540402835291602001916101b4565b820191906000526020600020905b81548152906001019060200180831161019757829003601f168201915b50509550505050505060405180910390f35b34156101d157600080fd5b6101fd600480803573ffffffffffffffffffffffffffffffffffffffff16906020019091905050610678565b6040518080602001828103825283818151815260200191508051906020019060200280838360005b83811015610240578082015181840152602081019050610225565b505050509050019250505060405180910390f35b341561025f57600080fd5b61027560048080359060200190919050506107a6565b604051808273ffffffffffffffffffffffffffffffffffffffff1673ffffffffffffffffffffffffffffffffffffffff16815260200191505060405180910390f35b34156102c257600080fd5b6102ee600480803573ffffffffffffffffffffffffffffffffffffffff169060200190919050506107d9565b005b34156102fb57600080fd5b61031a6004808035906020019091908035906020019091905050610878565b005b341561032757600080fd5b610389600480803590602001909190803590602001909190803590602001908201803590602001908080601f01602080910402602001604051908101604052809392919081815260200183838082843782019150505050505091905050610958565b005b341561039657600080fd5b6103e6600480803590602001908201803590602001908080601f01602080910402602001604051908101604052809392919081815260200183838082843782019150505050505091905050610b0e565b005b34156103f357600080fd5b6103fb610b87565b604051808273ffffffffffffffffffffffffffffffffffffffff1673ffffffffffffffffffffffffffffffffffffffff16815260200191505060405180910390f35b341561044857600080fd5b61047260048080359060200190919080359060200190820180359060200191909192905050610bac565b005b341561047f57600080fd5b6104ab600480803573ffffffffffffffffffffffffffffffffffffffff16906020019091905050610c98565b005b6000600760009054906101000a900473ffffffffffffffffffffffffffffffffffffffff1673ffffffffffffffffffffffffffffffffffffffff1663e98b7f4d83600060405161014001526040518263ffffffff167c01000000000000000000000000000000000000000000000000000000000281526004018082815260200191505061014060405180830381600087803b151561054a57600080fd5b6102c65a03f1151561055b57600080fd5b505050604051805190602001805190602001805190602001805190602001805190602001805190602001805190602001805190602001805190602001805190509091929394959697985090919293949596975090919293949596509091929394955090919293945090919293509091925090915090508091505061061583826040805190810160405280600581526020017f6b69747479000000000000000000000000000000000000000000000000000000815250610958565b505050565b60048181548110151561062957fe5b906000526020600020906003020160009150905080600001908060010154908060020160009054906101000a900463ffffffff16908060020160049054906101000a900463ffffffff16905084565b61068061109b565b61068861109b565b600080600660008673ffffffffffffffffffffffffffffffffffffffff1673ffffffffffffffffffffffffffffffffffffffff168152602001908152602001600020546040518059106106d85750595b9080825280602002602001820160405250925060009150600090505b60048054905081101561079b578473ffffffffffffffffffffffffffffffffffffffff166005600083815260200190815260200160002060009054906101000a900473ffffffffffffffffffffffffffffffffffffffff1673ffffffffffffffffffffffffffffffffffffffff16141561078e5780838381518110151561077757fe5b906020019060200201818152505081806001019250505b80806001019150506106f4565b829350505050919050565b60056020528060005260406000206000915054906101000a900473ffffffffffffffffffffffffffffffffffffffff1681565b6000809054906101000a900473ffffffffffffffffffffffffffffffffffffffff1673ffffffffffffffffffffffffffffffffffffffff163373ffffffffffffffffffffffffffffffffffffffff1614151561083457600080fd5b80600760006101000a81548173ffffffffffffffffffffffffffffffffffffffff021916908373ffffffffffffffffffffffffffffffffffffffff16021790555050565b6014828160048281548110151561088b57fe5b906000526020600020906003020160020160009054906101000a900463ffffffff1663ffffffff16101515156108c057600080fd5b6005600085815260200190815260200160002060009054906101000a900473ffffffffffffffffffffffffffffffffffffffff1673ffffffffffffffffffffffffffffffffffffffff163373ffffffffffffffffffffffffffffffffffffffff1614151561092d57600080fd5b8260048581548110151561093d57fe5b90600052602060002090600302016001018190555050505050565b6000806005600086815260200190815260200160002060009054906101000a900473ffffffffffffffffffffffffffffffffffffffff1673ffffffffffffffffffffffffffffffffffffffff163373ffffffffffffffffffffffffffffffffffffffff161415156109c857600080fd5b6004858154811015156109d757fe5b90600052602060002090600302019150600254848115156109f457fe5b069350600284836001015401811515610a0957fe5b04905060405180807f6b697474790000000000000000000000000000000000000000000000000000008152506005019050604051809103902060001916836040518082805190602001908083835b602083101515610a7c5780518252602082019150602081019050602083039250610a57565b6001836020036101000a0380198251168184511680821785525050505050509050019150506040518091039020600019161415610ac8576063606482811515610ac157fe5b0682030190505b610b076040805190810160405280600681526020017f4e6f4e616d65000000000000000000000000000000000000000000000000000081525082610ded565b5050505050565b600080600660003373ffffffffffffffffffffffffffffffffffffffff1673ffffffffffffffffffffffffffffffffffffffff16815260200190815260200160002054141515610b5d57600080fd5b610b6682611019565b9050606481811515610b7457fe5b0681039050610b838282610ded565b5050565b6000809054906101000a900473ffffffffffffffffffffffffffffffffffffffff1681565b60028381600482815481101515610bbf57fe5b906000526020600020906003020160020160009054906101000a900463ffffffff1663ffffffff1610151515610bf457600080fd5b6005600086815260200190815260200160002060009054906101000a900473ffffffffffffffffffffffffffffffffffffffff1673ffffffffffffffffffffffffffffffffffffffff163373ffffffffffffffffffffffffffffffffffffffff16141515610c6157600080fd5b8383600487815481101515610c7257fe5b90600052602060002090600302016000019190610c909291906110af565b505050505050565b6000809054906101000a900473ffffffffffffffffffffffffffffffffffffffff1673ffffffffffffffffffffffffffffffffffffffff163373ffffffffffffffffffffffffffffffffffffffff16141515610cf357600080fd5b600073ffffffffffffffffffffffffffffffffffffffff168173ffffffffffffffffffffffffffffffffffffffff1614151515610d2f57600080fd5b8073ffffffffffffffffffffffffffffffffffffffff166000809054906101000a900473ffffffffffffffffffffffffffffffffffffffff1673ffffffffffffffffffffffffffffffffffffffff167f8be0079c531659141344cd1fd0a4f28419497f9722a3daafe3b4186f6b6457e060405160405180910390a3806000806101000a81548173ffffffffffffffffffffffffffffffffffffffff021916908373ffffffffffffffffffffffffffffffffffffffff16021790555050565b6000600160048054806001018281610e05919061112f565b91600052602060002090600302016000608060405190810160405280888152602001878152602001600163ffffffff168152602001600354420163ffffffff1681525090919091506000820151816000019080519060200190610e69929190611161565b506020820151816001015560408201518160020160006101000a81548163ffffffff021916908363ffffffff16021790555060608201518160020160046101000a81548163ffffffff021916908363ffffffff1602179055505050039050336005600083815260200190815260200160002060006101000a81548173ffffffffffffffffffffffffffffffffffffffff021916908373ffffffffffffffffffffffffffffffffffffffff160217905550600660003373ffffffffffffffffffffffffffffffffffffffff1673ffffffffffffffffffffffffffffffffffffffff168152602001908152602001600020600081548092919060010191905055507f88f026aacbbecc90c18411df4b1185fd8d9be2470f1962f192bf84a27d0704b78184846040518084815260200180602001838152602001828103825284818151815260200191508051906020019080838360005b83811015610fd8578082015181840152602081019050610fbd565b50505050905090810190601f1680156110055780820380516001836020036101000a031916815260200191505b5094505050505060405180910390a1505050565b600080826040518082805190602001908083835b602083101515611052578051825260208201915060208101905060208303925061102d565b6001836020036101000a03801982511681845116808217855250505050505090500191505060405180910390206001900490506002548181151561109257fe5b06915050919050565b602060405190810160405280600081525090565b828054600181600116156101000203166002900490600052602060002090601f016020900481019282601f106110f057803560ff191683800117855561111e565b8280016001018555821561111e579182015b8281111561111d578235825591602001919060010190611102565b5b50905061112b91906111e1565b5090565b81548183558181151161115c5760030281600302836000526020600020918201910161115b9190611206565b5b505050565b828054600181600116156101000203166002900490600052602060002090601f016020900481019282601f106111a257805160ff19168380011785556111d0565b828001600101855582156111d0579182015b828111156111cf5782518255916020019190600101906111b4565b5b5090506111dd91906111e1565b5090565b61120391905b808211156111ff5760008160009055506001016111e7565b5090565b90565b61126891905b808211156112645760008082016000611225919061126b565b60018201600090556002820160006101000a81549063ffffffff02191690556002820160046101000a81549063ffffffff02191690555060030161120c565b5090565b90565b50805460018160011615610100020316600290046000825580601f1061129157506112b0565b601f0160209004906000526020600020908101906112af91906111e1565b5b505600a165627a7a72305820ac5d06ab8ca4b4fffa78573dc4117a4542b0c555b5cbd02a9a7b42c3442bd8ae0029",
  "source": "pragma solidity ^0.4.17;\r\n\r\nimport \"./zombiefeeding.sol\";\r\n\r\ncontract ZombieHelper is ZombieFeeding {\r\n\r\n    modifier aboveLevel(uint _level, uint _zombieId) {\r\n        require(zombies[_zombieId].level >= _level);\r\n        _;\r\n    }\r\n\r\n    function changeName(uint _zombieId, string _newName) external aboveLevel(2, _zombieId) {\r\n        require(msg.sender == zombieToOwner[_zombieId]);\r\n        zombies[_zombieId].name = _newName;\r\n    }\r\n\r\n    function changeDna(uint _zombieId, uint _newDna) external aboveLevel(20, _zombieId) {\r\n        require(msg.sender == zombieToOwner[_zombieId]);\r\n        zombies[_zombieId].dna = _newDna;\r\n    }\r\n\r\n    function getZombiesByOwner(address _owner) external view returns(uint[]) {\r\n        uint[] memory result = new uint[](ownerZombieCount[_owner]);\r\n        // Start here\r\n        uint counter = 0;\r\n        for (uint i = 0; i < zombies.length; i++) {\r\n            if (zombieToOwner[i] == _owner) {\r\n                result[counter] = i;\r\n                counter++;\r\n            }\r\n        }\r\n        return result;\r\n    }\r\n\r\n}",
  "sourcePath": "C:\\Users\\heads\\Documents\\Research\\Dapps\\zombies\\contracts\\ZombieHelper.sol",
  "compiler": {
    "name": "solc",
    "version": "0.4.19+commit.c4cbbb05.Emscripten.clang"
  },
  "schemaVersion": "2.0.0",
  "updatedAt": "2018-04-02T04:14:18.575Z"
}