{
  "contractName": "Election",
  "abi": [
    {
      "constant": true,
      "inputs": [],
      "name": "candidatesCount",
      "outputs": [
        {
          "name": "",
          "type": "uint256"
        }
      ],
      "payable": false,
      "stateMutability": "view",
      "type": "function"
    },
    {
      "constant": true,
      "inputs": [
        {
          "name": "",
          "type": "uint256"
        }
      ],
      "name": "candidates",
      "outputs": [
        {
          "name": "id",
          "type": "uint256"
        },
        {
          "name": "name",
          "type": "string"
        },
        {
          "name": "voteCount",
          "type": "uint256"
        }
      ],
      "payable": false,
      "stateMutability": "view",
      "type": "function"
    },
    {
      "constant": true,
      "inputs": [],
      "name": "candidate",
      "outputs": [
        {
          "name": "",
          "type": "string"
        }
      ],
      "payable": false,
      "stateMutability": "view",
      "type": "function"
    },
    {
      "constant": true,
      "inputs": [
        {
          "name": "",
          "type": "address"
        }
      ],
      "name": "voters",
      "outputs": [
        {
          "name": "",
          "type": "bool"
        }
      ],
      "payable": false,
      "stateMutability": "view",
      "type": "function"
    },
    {
      "inputs": [],
      "payable": false,
      "stateMutability": "nonpayable",
      "type": "constructor"
    },
    {
      "anonymous": false,
      "inputs": [
        {
          "indexed": true,
          "name": "_candidateId",
          "type": "uint256"
        }
      ],
      "name": "votedEvent",
      "type": "event"
    },
    {
      "constant": false,
      "inputs": [
        {
          "name": "_candidateId",
          "type": "uint256"
        }
      ],
      "name": "vote",
      "outputs": [],
      "payable": false,
      "stateMutability": "nonpayable",
      "type": "function"
    }
  ],
  "bytecode": "0x6060604052341561000f57600080fd5b6100606040805190810160405280600b81526020017f43616e64696461746520310000000000000000000000000000000000000000008152506100b664010000000002610473176401000000009004565b6100b16040805190810160405280600b81526020017f43616e64696461746520320000000000000000000000000000000000000000008152506100b664010000000002610473176401000000009004565b6101d8565b60026000815480929190600101919050555060606040519081016040528060025481526020018281526020016000815250600160006002548152602001908152602001600020600082015181600001556020820151816001019080519060200190610122929190610133565b506040820151816002015590505050565b828054600181600116156101000203166002900490600052602060002090601f016020900481019282601f1061017457805160ff19168380011785556101a2565b828001600101855582156101a2579182015b828111156101a1578251825591602001919060010190610186565b5b5090506101af91906101b3565b5090565b6101d591905b808211156101d15760008160009055506001016101b9565b5090565b90565b6105c1806101e76000396000f30060606040526004361061006d576000357c0100000000000000000000000000000000000000000000000000000000900463ffffffff1680630121b93f146100725780632d35a8a2146100955780633477ee2e146100be5780636c8381f814610185578063a3ec138d14610213575b600080fd5b341561007d57600080fd5b6100936004808035906020019091905050610264565b005b34156100a057600080fd5b6100a8610386565b6040518082815260200191505060405180910390f35b34156100c957600080fd5b6100df600480803590602001909190505061038c565b60405180848152602001806020018381526020018281038252848181546001816001161561010002031660029004815260200191508054600181600116156101000203166002900480156101745780601f1061014957610100808354040283529160200191610174565b820191906000526020600020905b81548152906001019060200180831161015757829003601f168201915b505094505050505060405180910390f35b341561019057600080fd5b6101986103b5565b6040518080602001828103825283818151815260200191508051906020019080838360005b838110156101d85780820151818401526020810190506101bd565b50505050905090810190601f1680156102055780820380516001836020036101000a031916815260200191505b509250505060405180910390f35b341561021e57600080fd5b61024a600480803573ffffffffffffffffffffffffffffffffffffffff16906020019091905050610453565b604051808215151515815260200191505060405180910390f35b6000803373ffffffffffffffffffffffffffffffffffffffff1673ffffffffffffffffffffffffffffffffffffffff16815260200190815260200160002060009054906101000a900460ff161515156102bc57600080fd5b6000811180156102ce57506002548111155b15156102d957600080fd5b60016000803373ffffffffffffffffffffffffffffffffffffffff1673ffffffffffffffffffffffffffffffffffffffff16815260200190815260200160002060006101000a81548160ff0219169083151502179055506001600082815260200190815260200160002060020160008154809291906001019190505550807ffff3c900d938d21d0990d786e819f29b8d05c1ef587b462b939609625b684b1660405160405180910390a250565b60025481565b600160205280600052604060002060009150905080600001549080600101908060020154905083565b60038054600181600116156101000203166002900480601f01602080910402602001604051908101604052809291908181526020018280546001816001161561010002031660029004801561044b5780601f106104205761010080835404028352916020019161044b565b820191906000526020600020905b81548152906001019060200180831161042e57829003601f168201915b505050505081565b60006020528060005260406000206000915054906101000a900460ff1681565b600260008154809291906001019190505550606060405190810160405280600254815260200182815260200160008152506001600060025481526020019081526020016000206000820151816000015560208201518160010190805190602001906104df9291906104f0565b506040820151816002015590505050565b828054600181600116156101000203166002900490600052602060002090601f016020900481019282601f1061053157805160ff191683800117855561055f565b8280016001018555821561055f579182015b8281111561055e578251825591602001919060010190610543565b5b50905061056c9190610570565b5090565b61059291905b8082111561058e576000816000905550600101610576565b5090565b905600a165627a7a723058203dc28efe56b0c7fc38ea2b7a00b871059608fb2633d4e5057b3fb063df033d0b0029",
  "source": "pragma solidity ^0.4.2;\r\n\r\ncontract Election {\r\n    // Model candidate\r\n    struct Candidate {\r\n        uint id;\r\n        string name;\r\n        uint voteCount;\r\n    }\r\n    // Store candidate\r\n    \r\n    // Fetch candidate\r\n    // Store accounts that have voted\r\n    mapping(address => bool) public voters;\r\n    // A mapping from id to candidate, stores candidates\r\n    mapping (uint => Candidate) public candidates;\r\n    // Store candidates count\r\n    uint public candidatesCount; // There's no way to iterate over mappings, thus we must keep counter\r\n\r\n    // Read candidate\r\n    string public candidate;\r\n\r\n    // voted event\r\n    event votedEvent (\r\n        uint indexed _candidateId\r\n    );\r\n\r\n    // Constructor\r\n    function Election () public {\r\n        addCandidate(\"Candidate 1\");\r\n        addCandidate(\"Candidate 2\");\r\n    }\r\n\r\n    // Adds candidate to mapping, private to prevent access, and _name denotes local variable NOT state\r\n    function addCandidate(string _name) private {\r\n        candidatesCount ++;\r\n        candidates[candidatesCount] = Candidate(candidatesCount, _name, 0);\r\n    }\r\n\r\n    function vote (uint _candidateId) public {\r\n        // require that they haven't voted before\r\n        require(!voters[msg.sender]);\r\n        \r\n        // require a valid candidate ~ greater than zero, less or equal to the number of candidates\r\n        require(_candidateId > 0 && _candidateId <= candidatesCount);\r\n        \r\n        // record the voter as having voted \r\n        voters[msg.sender] = true;\r\n\r\n        // update candidate vote count\r\n        candidates[_candidateId].voteCount ++; \r\n\r\n        // tigger voted event\r\n        votedEvent(_candidateId);\r\n\r\n\r\n\r\n\r\n        // require(!voters[msg.sender]);\r\n\r\n        // // require a valid candidate\r\n        // require(_candidateId > 0 && _candidateId <= candidatesCount);\r\n\r\n        // // record that voter has voted\r\n        // voters[msg.sender] = true;\r\n\r\n        // // update candidate vote Count\r\n        // candidates[_candidateId].voteCount ++;\r\n\r\n        // // trigger voted event\r\n        // votedEvent(_candidateId);\r\n    }\r\n\r\n\r\n}\r\n",
  "sourcePath": "C:\\Users\\heads\\Documents\\Research\\Dapps\\voting\\contracts\\election.sol",
  "compiler": {
    "name": "solc",
    "version": "0.4.19+commit.c4cbbb05.Emscripten.clang"
  },
  "schemaVersion": "2.0.0",
  "updatedAt": "2018-03-30T19:55:37.399Z"
}