{
  "contractName": "LandBase",
  "abi": [
    {
      "constant": false,
      "inputs": [
        {
          "name": "_newOwner",
          "type": "address"
        }
      ],
      "name": "setOwner",
      "outputs": [],
      "payable": false,
      "stateMutability": "nonpayable",
      "type": "function"
    },
    {
      "constant": true,
      "inputs": [
        {
          "name": "",
          "type": "uint256"
        }
      ],
      "name": "landIndexToOwner",
      "outputs": [
        {
          "name": "",
          "type": "address"
        }
      ],
      "payable": false,
      "stateMutability": "view",
      "type": "function"
    },
    {
      "constant": true,
      "inputs": [
        {
          "name": "",
          "type": "uint256"
        }
      ],
      "name": "forSale",
      "outputs": [
        {
          "name": "",
          "type": "bool"
        }
      ],
      "payable": false,
      "stateMutability": "view",
      "type": "function"
    },
    {
      "constant": true,
      "inputs": [],
      "name": "buildCount",
      "outputs": [
        {
          "name": "",
          "type": "uint256"
        }
      ],
      "payable": false,
      "stateMutability": "view",
      "type": "function"
    },
    {
      "constant": true,
      "inputs": [
        {
          "name": "",
          "type": "uint256"
        }
      ],
      "name": "landIndexToApproved",
      "outputs": [
        {
          "name": "",
          "type": "address"
        }
      ],
      "payable": false,
      "stateMutability": "view",
      "type": "function"
    },
    {
      "constant": false,
      "inputs": [],
      "name": "unpause",
      "outputs": [],
      "payable": false,
      "stateMutability": "nonpayable",
      "type": "function"
    },
    {
      "constant": true,
      "inputs": [],
      "name": "paused",
      "outputs": [
        {
          "name": "",
          "type": "bool"
        }
      ],
      "payable": false,
      "stateMutability": "view",
      "type": "function"
    },
    {
      "constant": true,
      "inputs": [],
      "name": "gameStatus",
      "outputs": [
        {
          "name": "",
          "type": "uint256"
        }
      ],
      "payable": false,
      "stateMutability": "view",
      "type": "function"
    },
    {
      "constant": true,
      "inputs": [],
      "name": "secondsPerBlock",
      "outputs": [
        {
          "name": "",
          "type": "uint256"
        }
      ],
      "payable": false,
      "stateMutability": "view",
      "type": "function"
    },
    {
      "constant": false,
      "inputs": [],
      "name": "pause",
      "outputs": [],
      "payable": false,
      "stateMutability": "nonpayable",
      "type": "function"
    },
    {
      "constant": true,
      "inputs": [],
      "name": "owner",
      "outputs": [
        {
          "name": "",
          "type": "address"
        }
      ],
      "payable": false,
      "stateMutability": "view",
      "type": "function"
    },
    {
      "constant": true,
      "inputs": [
        {
          "name": "",
          "type": "uint256"
        }
      ],
      "name": "cooldowns",
      "outputs": [
        {
          "name": "",
          "type": "uint32"
        }
      ],
      "payable": false,
      "stateMutability": "view",
      "type": "function"
    },
    {
      "constant": true,
      "inputs": [],
      "name": "escrow",
      "outputs": [
        {
          "name": "",
          "type": "address"
        }
      ],
      "payable": false,
      "stateMutability": "view",
      "type": "function"
    },
    {
      "constant": true,
      "inputs": [
        {
          "name": "",
          "type": "uint256"
        }
      ],
      "name": "forSalePrice",
      "outputs": [
        {
          "name": "",
          "type": "uint8"
        }
      ],
      "payable": false,
      "stateMutability": "view",
      "type": "function"
    },
    {
      "constant": true,
      "inputs": [
        {
          "name": "",
          "type": "uint256"
        }
      ],
      "name": "properties",
      "outputs": [
        {
          "name": "id",
          "type": "uint256"
        },
        {
          "name": "name",
          "type": "string"
        },
        {
          "name": "buildTime",
          "type": "uint64"
        },
        {
          "name": "lat",
          "type": "int64"
        },
        {
          "name": "long",
          "type": "int64"
        }
      ],
      "payable": false,
      "stateMutability": "view",
      "type": "function"
    },
    {
      "anonymous": false,
      "inputs": [
        {
          "indexed": false,
          "name": "owner",
          "type": "address"
        },
        {
          "indexed": false,
          "name": "name",
          "type": "string"
        },
        {
          "indexed": false,
          "name": "landId",
          "type": "uint256"
        },
        {
          "indexed": false,
          "name": "lat",
          "type": "int256"
        },
        {
          "indexed": false,
          "name": "long",
          "type": "int256"
        },
        {
          "indexed": false,
          "name": "id",
          "type": "uint256"
        }
      ],
      "name": "Build",
      "type": "event"
    },
    {
      "anonymous": false,
      "inputs": [
        {
          "indexed": false,
          "name": "landId",
          "type": "uint256"
        },
        {
          "indexed": false,
          "name": "name",
          "type": "string"
        },
        {
          "indexed": false,
          "name": "price",
          "type": "uint8"
        }
      ],
      "name": "Sale",
      "type": "event"
    },
    {
      "anonymous": false,
      "inputs": [
        {
          "indexed": false,
          "name": "from",
          "type": "address"
        },
        {
          "indexed": false,
          "name": "to",
          "type": "address"
        },
        {
          "indexed": false,
          "name": "tokenId",
          "type": "uint256"
        }
      ],
      "name": "Transfer",
      "type": "event"
    },
    {
      "anonymous": false,
      "inputs": [
        {
          "indexed": false,
          "name": "newContract",
          "type": "address"
        }
      ],
      "name": "ContractUpgrade",
      "type": "event"
    },
    {
      "anonymous": false,
      "inputs": [
        {
          "indexed": false,
          "name": "error",
          "type": "string"
        }
      ],
      "name": "NotOwner",
      "type": "event"
    },
    {
      "anonymous": false,
      "inputs": [
        {
          "indexed": true,
          "name": "previousOwner",
          "type": "address"
        },
        {
          "indexed": true,
          "name": "newOwner",
          "type": "address"
        }
      ],
      "name": "OwnershipTransferred",
      "type": "event"
    },
    {
      "constant": false,
      "inputs": [
        {
          "name": "secs",
          "type": "uint256"
        }
      ],
      "name": "setSecondsPerBlock",
      "outputs": [],
      "payable": false,
      "stateMutability": "nonpayable",
      "type": "function"
    },
    {
      "constant": false,
      "inputs": [
        {
          "name": "_landId",
          "type": "uint256"
        },
        {
          "name": "_price",
          "type": "uint256"
        }
      ],
      "name": "putForSale",
      "outputs": [],
      "payable": false,
      "stateMutability": "nonpayable",
      "type": "function"
    },
    {
      "constant": false,
      "inputs": [
        {
          "name": "_landId",
          "type": "uint256"
        }
      ],
      "name": "buyLand",
      "outputs": [],
      "payable": true,
      "stateMutability": "payable",
      "type": "function"
    },
    {
      "constant": false,
      "inputs": [
        {
          "name": "_name",
          "type": "string"
        },
        {
          "name": "_lat",
          "type": "int256"
        },
        {
          "name": "_long",
          "type": "int256"
        }
      ],
      "name": "createLand",
      "outputs": [],
      "payable": false,
      "stateMutability": "nonpayable",
      "type": "function"
    },
    {
      "constant": false,
      "inputs": [
        {
          "name": "_escrow",
          "type": "address"
        }
      ],
      "name": "setEscrow",
      "outputs": [
        {
          "name": "",
          "type": "address"
        }
      ],
      "payable": false,
      "stateMutability": "nonpayable",
      "type": "function"
    }
  ],
  "bytecode": "0x606060405260008060146101000a81548160ff0219169083151502179055506101606040519081016040528061025863ffffffff1663ffffffff16815260200161070863ffffffff1663ffffffff168152602001610e1063ffffffff1663ffffffff168152602001611c2063ffffffff1663ffffffff16815260200161384063ffffffff1663ffffffff16815260200161708063ffffffff1663ffffffff16815260200161e10063ffffffff1663ffffffff1681526020016201518063ffffffff1663ffffffff1681526020016202a30063ffffffff1663ffffffff1681526020016205460063ffffffff1663ffffffff16815260200162093a8063ffffffff1663ffffffff16815250600190600b6200011b929190620001ae565b50600f6003556000600460006101000a81548173ffffffffffffffffffffffffffffffffffffffff021916908373ffffffffffffffffffffffffffffffffffffffff1602179055506017600655336000806101000a81548173ffffffffffffffffffffffffffffffffffffffff021916908373ffffffffffffffffffffffffffffffffffffffff1602179055506200028e565b82600b600701600890048101928215620002455791602002820160005b838211156200021157835183826101000a81548163ffffffff021916908363ffffffff1602179055509260200192600401602081600301049283019260010302620001cb565b8015620002435782816101000a81549063ffffffff021916905560040160208160030104928301926001030262000211565b505b50905062000254919062000258565b5090565b6200028b91905b808211156200028757600081816101000a81549063ffffffff0219169055506001016200025f565b5090565b90565b6118a6806200029e6000396000f300606060405260043610610112576000357c0100000000000000000000000000000000000000000000000000000000900463ffffffff16806313af40351461011757806325e5d997146101505780632831f2f4146101b35780632cf9c5b6146101ee5780632f1a04e5146102175780633cd76be21461027a5780633f4ba83a146102a65780635663896e146102bb5780635c975abb146102de5780636cc6f9bb1461030b578063722fed7e1461034b5780637a7d4937146103745780638456cb591461039d5780638da5cb5b146103b25780639d6fac6f14610407578063c10c35461461044a578063ced39558146104c3578063e2fdcc17146104db578063e6c1735014610530578063f7b108081461056d575b600080fd5b341561012257600080fd5b61014e600480803573ffffffffffffffffffffffffffffffffffffffff16906020019091905050610662565b005b341561015b57600080fd5b610171600480803590602001909190505061073c565b604051808273ffffffffffffffffffffffffffffffffffffffff1673ffffffffffffffffffffffffffffffffffffffff16815260200191505060405180910390f35b34156101be57600080fd5b6101d4600480803590602001909190505061076f565b604051808215151515815260200191505060405180910390f35b34156101f957600080fd5b61020161078f565b6040518082815260200191505060405180910390f35b341561022257600080fd5b6102386004808035906020019091905050610795565b604051808273ffffffffffffffffffffffffffffffffffffffff1673ffffffffffffffffffffffffffffffffffffffff16815260200191505060405180910390f35b341561028557600080fd5b6102a460048080359060200190919080359060200190919050506107c8565b005b34156102b157600080fd5b6102b9610aa3565b005b34156102c657600080fd5b6102dc6004808035906020019091905050610b35565b005b34156102e957600080fd5b6102f1610bd9565b604051808215151515815260200191505060405180910390f35b341561031657600080fd5b61034960048080359060200190820180359060200191909192908035906020019091908035906020019091905050610bec565b005b341561035657600080fd5b61035e610c8e565b6040518082815260200191505060405180910390f35b341561037f57600080fd5b610387610c94565b6040518082815260200191505060405180910390f35b34156103a857600080fd5b6103b0610c9a565b005b34156103bd57600080fd5b6103c5610d2e565b604051808273ffffffffffffffffffffffffffffffffffffffff1673ffffffffffffffffffffffffffffffffffffffff16815260200191505060405180910390f35b341561041257600080fd5b6104286004808035906020019091905050610d53565b604051808263ffffffff1663ffffffff16815260200191505060405180910390f35b341561045557600080fd5b610481600480803573ffffffffffffffffffffffffffffffffffffffff16906020019091905050610d82565b604051808273ffffffffffffffffffffffffffffffffffffffff1673ffffffffffffffffffffffffffffffffffffffff16815260200191505060405180910390f35b6104d96004808035906020019091905050610e91565b005b34156104e657600080fd5b6104ee610fa4565b604051808273ffffffffffffffffffffffffffffffffffffffff1673ffffffffffffffffffffffffffffffffffffffff16815260200191505060405180910390f35b341561053b57600080fd5b6105516004808035906020019091905050610fca565b604051808260ff1660ff16815260200191505060405180910390f35b341561057857600080fd5b61058e6004808035906020019091905050610fea565b60405180868152602001806020018567ffffffffffffffff1667ffffffffffffffff1681526020018460070b60070b81526020018360070b60070b815260200182810382528681815460018160011615610100020316600290048152602001915080546001816001161561010002031660029004801561064f5780601f106106245761010080835404028352916020019161064f565b820191906000526020600020905b81548152906001019060200180831161063257829003601f168201915b5050965050505050505060405180910390f35b6000809054906101000a900473ffffffffffffffffffffffffffffffffffffffff1673ffffffffffffffffffffffffffffffffffffffff163373ffffffffffffffffffffffffffffffffffffffff161415156106bd57600080fd5b600073ffffffffffffffffffffffffffffffffffffffff168173ffffffffffffffffffffffffffffffffffffffff16141515156106f957600080fd5b806000806101000a81548173ffffffffffffffffffffffffffffffffffffffff021916908373ffffffffffffffffffffffffffffffffffffffff16021790555050565b600b6020528060005260406000206000915054906101000a900473ffffffffffffffffffffffffffffffffffffffff1681565b60096020528060005260406000206000915054906101000a900460ff1681565b60055481565b600d6020528060005260406000206000915054906101000a900473ffffffffffffffffffffffffffffffffffffffff1681565b6107d0611679565b3373ffffffffffffffffffffffffffffffffffffffff16600b600085815260200190815260200160002060009054906101000a900473ffffffffffffffffffffffffffffffffffffffff1673ffffffffffffffffffffffffffffffffffffffff1614151561083d57600080fd5b6000821015151561084d57600080fd5b60016009600085815260200190815260200160002060006101000a81548160ff02191690831515021790555081600a600085815260200190815260200160002060006101000a81548160ff021916908360ff1602179055506007838154811015156108b457fe5b906000526020600020906003020160a0604051908101604052908160008201548152602001600182018054600181600116156101000203166002900480601f0160208091040260200160405190810160405280929190818152602001828054600181600116156101000203166002900480156109715780601f1061094657610100808354040283529160200191610971565b820191906000526020600020905b81548152906001019060200180831161095457829003601f168201915b505050505081526020016002820160009054906101000a900467ffffffffffffffff1667ffffffffffffffff1667ffffffffffffffff1681526020016002820160089054906101000a900460070b60070b60070b81526020016002820160109054906101000a900460070b60070b60070b8152505090507ffef8c30e86dc46579544226bba0460f62e7429d178d5da1404b45af3b2e3fbef8382602001518460405180848152602001806020018360ff1660ff168152602001828103825284818151815260200191508051906020019080838360005b83811015610a62578082015181840152602081019050610a47565b50505050905090810190601f168015610a8f5780820380516001836020036101000a031916815260200191505b5094505050505060405180910390a1505050565b6000809054906101000a900473ffffffffffffffffffffffffffffffffffffffff1673ffffffffffffffffffffffffffffffffffffffff163373ffffffffffffffffffffffffffffffffffffffff16141515610afe57600080fd5b600060149054906101000a900460ff161515610b1957600080fd5b60008060146101000a81548160ff021916908315150217905550565b6000809054906101000a900473ffffffffffffffffffffffffffffffffffffffff1673ffffffffffffffffffffffffffffffffffffffff163373ffffffffffffffffffffffffffffffffffffffff16141515610b9057600080fd5b60016000600b81101515610ba057fe5b600891828204019190066004029054906101000a900463ffffffff1663ffffffff1681101515610bcf57600080fd5b8060038190555050565b600060149054906101000a900460ff1681565b6000809054906101000a900473ffffffffffffffffffffffffffffffffffffffff1673ffffffffffffffffffffffffffffffffffffffff163373ffffffffffffffffffffffffffffffffffffffff16141515610c4757600080fd5b610c8784848080601f016020809104026020016040519081016040528093929190818152602001838380828437820191505050505050838333600061105c565b5050505050565b60065481565b60035481565b6000809054906101000a900473ffffffffffffffffffffffffffffffffffffffff1673ffffffffffffffffffffffffffffffffffffffff163373ffffffffffffffffffffffffffffffffffffffff16141515610cf557600080fd5b600060149054906101000a900460ff16151515610d1157600080fd5b6001600060146101000a81548160ff021916908315150217905550565b6000809054906101000a900473ffffffffffffffffffffffffffffffffffffffff1681565b600181600b81101515610d6257fe5b60089182820401919006600402915054906101000a900463ffffffff1681565b60008060009054906101000a900473ffffffffffffffffffffffffffffffffffffffff1673ffffffffffffffffffffffffffffffffffffffff163373ffffffffffffffffffffffffffffffffffffffff16141515610ddf57600080fd5b6000600460009054906101000a900473ffffffffffffffffffffffffffffffffffffffff1673ffffffffffffffffffffffffffffffffffffffff16141515610e2657600080fd5b81600460006101000a81548173ffffffffffffffffffffffffffffffffffffffff021916908373ffffffffffffffffffffffffffffffffffffffff160217905550600460009054906101000a900473ffffffffffffffffffffffffffffffffffffffff169050919050565b60006009600083815260200190815260200160002060009054906101000a900460ff161515610ebf57600080fd5b3373ffffffffffffffffffffffffffffffffffffffff16600b600084815260200190815260200160002060009054906101000a900473ffffffffffffffffffffffffffffffffffffffff1673ffffffffffffffffffffffffffffffffffffffff1614151515610f2d57600080fd5b600a600083815260200190815260200160002060009054906101000a900460ff1660ff163410151515610f5f57600080fd5b600b600083815260200190815260200160002060009054906101000a900473ffffffffffffffffffffffffffffffffffffffff169050610fa0813384611477565b5050565b600460009054906101000a900473ffffffffffffffffffffffffffffffffffffffff1681565b600a6020528060005260406000206000915054906101000a900460ff1681565b600781815481101515610ff957fe5b906000526020600020906003020160009150905080600001549080600101908060020160009054906101000a900467ffffffffffffffff16908060020160089054906101000a900460070b908060020160109054906101000a900460070b905085565b6000611066611679565b60008060009054906101000a900473ffffffffffffffffffffffffffffffffffffffff1673ffffffffffffffffffffffffffffffffffffffff163373ffffffffffffffffffffffffffffffffffffffff161415156110c357600080fd5b8760086000826040518082805190602001908083835b6020831015156110fe57805182526020820191506020810190506020830392506110d9565b6001836020036101000a038019825116818451168082178552505050505050905001915050604051809103902060019004815260200190815260200160002060009054906101000a900460ff1615151561115757600080fd5b8760070b8814151561116857600080fd5b8660070b8714151561117957600080fd5b60056000815480929190600101919050555060a0604051908101604052808a6040518082805190602001908083835b6020831015156111cd57805182526020820191506020810190506020830392506111a8565b6001836020036101000a03801982511681845116808217855250505050505090500191505060405180910390206001900481526020018a81526020014267ffffffffffffffff1681526020018960070b81526020018860070b815250925060016007805480600101828161124191906116bf565b9160005260206000209060030201600086909190915060008201518160000155602082015181600101908051906020019061127d9291906116f1565b5060408201518160020160006101000a81548167ffffffffffffffff021916908367ffffffffffffffff16021790555060608201518160020160086101000a81548167ffffffffffffffff021916908360070b67ffffffffffffffff16021790555060808201518160020160106101000a81548167ffffffffffffffff021916908360070b67ffffffffffffffff16021790555050500391506001600860008560000151815260200190815260200160002060006101000a81548160ff0219169083151502179055508163ffffffff168214151561135a57600080fd5b7fd05087beb86076b4745b52c39dd5c3f003943378fa4df4f1869374167014e2a7868a84866060015187608001518860000151604051808773ffffffffffffffffffffffffffffffffffffffff1673ffffffffffffffffffffffffffffffffffffffff168152602001806020018681526020018560070b81526020018460070b8152602001838152602001828103825287818151815260200191508051906020019080838360005b8381101561141d578082015181840152602081019050611402565b50505050905090810190601f16801561144a5780820380516001836020036101000a031916815260200191505b5097505050505050505060405180910390a161146860008784611477565b81935050505095945050505050565b600c60008373ffffffffffffffffffffffffffffffffffffffff1673ffffffffffffffffffffffffffffffffffffffff1681526020019081526020016000206000815480929190600101919050555081600b600083815260200190815260200160002060006101000a81548173ffffffffffffffffffffffffffffffffffffffff021916908373ffffffffffffffffffffffffffffffffffffffff160217905550600073ffffffffffffffffffffffffffffffffffffffff168373ffffffffffffffffffffffffffffffffffffffff161415156115d557600c60008473ffffffffffffffffffffffffffffffffffffffff1673ffffffffffffffffffffffffffffffffffffffff1681526020019081526020016000206000815480929190600190039190505550600d600082815260200190815260200160002060006101000a81549073ffffffffffffffffffffffffffffffffffffffff02191690555b7fddf252ad1be2c89b69c2b068fc378daa952ba7f163c4a11628f55a4df523b3ef838383604051808473ffffffffffffffffffffffffffffffffffffffff1673ffffffffffffffffffffffffffffffffffffffff1681526020018373ffffffffffffffffffffffffffffffffffffffff1673ffffffffffffffffffffffffffffffffffffffff168152602001828152602001935050505060405180910390a1505050565b60a06040519081016040528060008152602001611694611771565b8152602001600067ffffffffffffffff168152602001600060070b8152602001600060070b81525090565b8154818355818115116116ec576003028160030283600052602060002091820191016116eb9190611785565b5b505050565b828054600181600116156101000203166002900490600052602060002090601f016020900481019282601f1061173257805160ff1916838001178555611760565b82800160010185558215611760579182015b8281111561175f578251825591602001919060010190611744565b5b50905061176d919061180d565b5090565b602060405190810160405280600081525090565b61180a91905b80821115611806576000808201600090556001820160006117ac9190611832565b6002820160006101000a81549067ffffffffffffffff02191690556002820160086101000a81549067ffffffffffffffff02191690556002820160106101000a81549067ffffffffffffffff02191690555060030161178b565b5090565b90565b61182f91905b8082111561182b576000816000905550600101611813565b5090565b90565b50805460018160011615610100020316600290046000825580601f106118585750611877565b601f016020900490600052602060002090810190611876919061180d565b5b505600a165627a7a723058202048c37c5e94ce86d738a33e4002726af3ea4b900a1dae77e48de020e0371c530029",
  "source": "pragma solidity ^0.4.2;\r\n\r\nimport \"./landaccess.sol\";\r\n\r\n\r\n/// @title Base contract for CryptoHoosiers. Holds all common structs, events and base variables.\r\n/// @author Chris East\r\ncontract LandBase is LandAccess {\r\n    /*** EVENTS ***/\r\n\r\n    /// @dev The Build event is fired whenever a new property is generated. \r\n    event Build(address owner, string name, uint256 landId, int256 lat, int256 long, uint256 id);\r\n\r\n    /// @dev The Sale event is fired whenever a new property is put up for sale. \r\n    event Sale(uint256 landId, string name, uint8 price);\r\n\r\n    /// @dev Transfer event as defined in current draft of ERC721. Emitted every time property\r\n    ///  ownership is assigned, including builds.\r\n    event Transfer(address from, address to, uint256 tokenId);\r\n\r\n    /*** DATA TYPES ***/\r\n    /// @dev The main Kitty struct. Every cat in CryptoKitties is represented by a copy\r\n    ///  of this structure, so great care was taken to ensure that it fits neatly into\r\n    ///  exactly two 256-bit words. Note that the order of the members in this structure\r\n    ///  is important because of the byte-packing rules used by Ethereum.\r\n    ///  Ref: http://solidity.readthedocs.io/en/develop/miscellaneous.html\r\n    struct Land {\r\n        // The id of the land, each is unquie to the property\r\n        uint256 id;\r\n        string name;\r\n        //uint64 cooldownEndBlock;    // The minimum timestamp after which this land can collect rent again. \r\n        uint64 buildTime;           // The timestamp from the block when this land was 'built'.\r\n        // lat and long position of the property, filled in with the main result from google api \r\n        int64 lat;\r\n        int64 long;\r\n\r\n        //int32 value;                // The value of the property\r\n        //uint16 rent;                // The rent value of the property\r\n        //uint8 coolDownPeriod;       // The cooldown length for this property, used for collecting rent \r\n        //uint8 level;                 // The level of the property \r\n\r\n    }\r\n\r\n    struct Kitty {\r\n        // The Kitty's genetic code is packed into these 256-bits, the format is\r\n        // sooper-sekret! A cat's genes never change.\r\n        uint256 genes;\r\n\r\n        // The timestamp from the block when this cat came into existence.\r\n        uint64 birthTime;\r\n\r\n        // The minimum timestamp after which this cat can engage in breeding\r\n        // activities again. This same timestamp is used for the pregnancy\r\n        // timer (for matrons) as well as the siring cooldown.\r\n        uint64 cooldownEndBlock;\r\n\r\n        // The ID of the parents of this kitty, set to 0 for gen0 cats.\r\n        // Note that using 32-bit unsigned integers limits us to a \"mere\"\r\n        // 4 billion cats. This number might seem small until you realize\r\n        // that Ethereum currently has a limit of about 500 million\r\n        // transactions per year! So, this definitely won't be a problem\r\n        // for several years (even as Ethereum learns to scale).\r\n        uint32 matronId;\r\n        uint32 sireId;\r\n\r\n        // Set to the ID of the sire cat for matrons that are pregnant,\r\n        // zero otherwise. A non-zero value here is how we know a cat\r\n        // is pregnant. Used to retrieve the genetic material for the new\r\n        // kitten when the birth transpires.\r\n        uint32 siringWithId;\r\n\r\n        // Set to the index in the cooldown array (see below) that represents\r\n        // the current cooldown duration for this Kitty. This starts at zero\r\n        // for gen0 cats, and is initialized to floor(generation/2) for others.\r\n        // Incremented by one for each successful breeding action, regardless\r\n        // of whether this cat is acting as matron or sire.\r\n        uint16 cooldownIndex;\r\n\r\n        // The \"generation number\" of this cat. Cats minted by the CK contract\r\n        // for sale are called \"gen0\" and have a generation number of 0. The\r\n        // generation number of all other cats is the larger of the two generation\r\n        // numbers of their parents, plus one.\r\n        // (i.e. max(matron.generation, sire.generation) + 1)\r\n        uint16 generation;\r\n    }\r\n\r\n    /*** CONSTANTS ***/\r\n    /// @dev A lookup table indicating the cooldown duration after any successful\r\n    ///  breeding action, called \"pregnancy time\" for matrons and \"siring cooldown\"\r\n    ///  for sires. Designed such that the cooldown roughly doubles each time a cat\r\n    ///  is bred, encouraging owners not to just keep breeding the same cat over\r\n    ///  and over again. Caps out at one week (a cat can breed an unbounded number\r\n    ///  of times, and the maximum cooldown is always seven days).\r\n    uint32[11] public cooldowns = [\r\n        uint32(10 minutes),\r\n        uint32(30 minutes),\r\n        uint32(1 hours),\r\n        uint32(2 hours),\r\n        uint32(4 hours),\r\n        uint32(8 hours),\r\n        uint32(16 hours),\r\n        uint32(1 days),\r\n        uint32(2 days),\r\n        uint32(4 days),\r\n        uint32(7 days)\r\n    ];\r\n\r\n    // An approximation of currently how many seconds are in between blocks.\r\n    uint256 public secondsPerBlock = 15;\r\n\r\n    address public escrow = address(0x0);\r\n\r\n    uint256 public buildCount;\r\n\r\n    uint public gameStatus = 23;\r\n\r\n    /*** STORAGE ***/\r\n\r\n    /// @dev An array containing the Kitty struct for all Kitties in existence. The ID\r\n    ///  of each cat is actually an index into this array. Note that ID 0 is a negacat,\r\n    ///  the unKitty, the mythical beast that is the parent of all gen0 cats. A bizarre\r\n    ///  creature that is both matron and sire... to itself! Has an invalid genetic code.\r\n    ///  In other words, cat ID 0 is invalid... ;-)\r\n    Land[] public properties;\r\n    \r\n    \r\n\r\n    mapping(uint=>bool) internal built;\r\n\r\n    mapping(uint256 => bool) public forSale;\r\n\r\n    mapping(uint256 => uint8) public forSalePrice;\r\n\r\n    /// @dev A mapping from land IDs to the address that owns them. \r\n    mapping (uint256 => address) public landIndexToOwner;\r\n\r\n    // @dev A mapping from owner address to count of tokens that address owns.\r\n    //  Used internally inside balanceOf() to resolve ownership count.\r\n    mapping (address => uint256) ownershipTokenCount;\r\n\r\n    /// @dev A mapping from KittyIDs to an address that has been approved to call\r\n    ///  transferFrom(). Each Kitty can only have one approved address for transfer\r\n    ///  at any time. A zero value means no approval is outstanding.\r\n    mapping (uint256 => address) public landIndexToApproved;\r\n\r\n    modifier notBuilt(string _name) {\r\n        require(!built[uint256(keccak256(_name))]);\r\n        _;\r\n    }\r\n\r\n    // Owner can fix how many seconds per blocks are currently observed.\r\n    function setSecondsPerBlock(uint256 secs) external onlyOwner {\r\n        require(secs < cooldowns[0]);\r\n        secondsPerBlock = secs;\r\n    }\r\n\r\n    /// @dev The address of the ClockAuction contract that handles sales of Land. This\r\n    ///  same contract handles both peer-to-peer sales\r\n    //SaleClockAuction public saleAuction;\r\n    /// @dev Assigns ownership of a specific property to an address.\r\n    function _transfer(address _from, address _to, uint256 _tokenId) internal {\r\n        // Since the number of properties is far lower than 2^32 we can't overflow this\r\n        ownershipTokenCount[_to]++;\r\n        // transfer ownership\r\n        landIndexToOwner[_tokenId] = _to;\r\n        // When creating new properties _from is 0x0, but we can't account that address.\r\n        if (_from != address(0)) {\r\n            // Decrease token count for seller\r\n            ownershipTokenCount[_from]--;\r\n            // clear any previously approved ownership exchange\r\n            delete landIndexToApproved[_tokenId];\r\n        }\r\n        // Emit the transfer event.\r\n        Transfer(_from, _to, _tokenId);\r\n    }\r\n\r\n    function putForSale (uint _landId, uint _price) public {\r\n        // require that they haven't voted before\r\n        require(landIndexToOwner[_landId] == msg.sender);\r\n        require(_price >= 0);\r\n        // record the voter as having voted \r\n        forSale[_landId] = true;\r\n        forSalePrice[_landId] = uint8(_price);\r\n        Land memory _land = properties[_landId];\r\n        \r\n        // tigger voted event\r\n        Sale(_landId, _land.name, uint8(_price));\r\n    }\r\n\r\n    function buyLand (uint _landId) public payable {\r\n        require(forSale[_landId]);\r\n        require(landIndexToOwner[_landId] != msg.sender);\r\n        require(msg.value >= uint256(forSalePrice[_landId]));\r\n        address propOwner = landIndexToOwner[_landId];\r\n\r\n        _transfer(propOwner, msg.sender, _landId);\r\n    }\r\n\r\n    \r\n    function _createLand(\r\n        string _name,\r\n        int256 _lat,\r\n        int256 _long,\r\n        address _owner,\r\n        uint256 _coolDownPeriod\r\n    )\r\n        internal onlyOwner notBuilt(_name)\r\n        returns (uint)\r\n    {\r\n        // These requires are not strictly necessary, our calling code should make\r\n        // sure that these conditions are never broken. However! _createKitty() is already\r\n        // an expensive call (for storage), and it doesn't hurt to be especially careful\r\n        // to ensure our data structures are always valid.\r\n        require(_lat == int256(int64(_lat)));\r\n        require(_long == int256(int64(_long)));\r\n        \r\n        buildCount++;\r\n        //uint16 cooldownIndex = uint16(_generation / 2);\r\n\r\n        // if (cooldownIndex > 13) {\r\n        //     cooldownIndex = 13;\r\n        // }\r\n        // The id of the land, each is unquie to the property\r\n        \r\n        Land memory _land = Land({\r\n            id: uint256(keccak256(_name)),\r\n            name: string(_name),\r\n            buildTime: uint64(now),\r\n            //cooldownEndBlock: uint64(0),\r\n            lat: int64(_lat),\r\n            long: int64(_long)//,\r\n            //value: uint16(0),\r\n            //rent: uint16(0),\r\n            //coolDownPeriod: uint8(_coolDownPeriod),\r\n            //level: uint8(1)\r\n        });\r\n        uint256 newLandId = properties.push(_land) - 1;\r\n        built[_land.id] = true;\r\n\r\n        // It's probably never going to happen, 4 billion cats is A LOT, but\r\n        // let's just be 100% sure we never let this happen.\r\n        require(newLandId == uint256(uint32(newLandId)));\r\n\r\n        // emit the birth event ~ event Build(address owner, string name, uint256 landId, uint256 lat, uint256 long);\r\n        Build(_owner, _name, newLandId, _land.lat, _land.long, _land.id);\r\n\r\n\r\n\r\n        // This will assign ownership, and also emit the Transfer event as\r\n        // per ERC721 draft\r\n        _transfer(0, _owner, newLandId);\r\n\r\n        return newLandId;\r\n    }\r\n\r\n    function createLand(string _name, int256 _lat, int256 _long) external onlyOwner {\r\n        //require() - Require the hash of this is not in the array already\r\n        _createLand(_name, _lat, _long, msg.sender, 0);\r\n    }\r\n\r\n    function setEscrow(address _escrow) external onlyOwner returns(address){\r\n        require(escrow == 0x0);\r\n        escrow = _escrow;\r\n        return escrow;\r\n    }\r\n\r\n    \r\n}",
  "sourcePath": "C:\\Users\\heads\\Documents\\Research\\Dapps\\land\\contracts\\LandBase.sol",
  "compiler": {
    "name": "solc",
    "version": "0.4.19+commit.c4cbbb05.Emscripten.clang"
  },
  "schemaVersion": "2.0.0",
  "updatedAt": "2018-04-18T18:13:33.582Z"
}