{
  "contractName": "LandBase",
  "abi": [
    {
      "constant": false,
      "inputs": [
        {
          "name": "_newOwner",
          "type": "address"
        }
      ],
      "name": "setOwner",
      "outputs": [],
      "payable": false,
      "stateMutability": "nonpayable",
      "type": "function"
    },
    {
      "constant": true,
      "inputs": [
        {
          "name": "",
          "type": "uint256"
        }
      ],
      "name": "landIndexToOwner",
      "outputs": [
        {
          "name": "",
          "type": "address"
        }
      ],
      "payable": false,
      "stateMutability": "view",
      "type": "function"
    },
    {
      "constant": true,
      "inputs": [
        {
          "name": "",
          "type": "uint256"
        }
      ],
      "name": "forSale",
      "outputs": [
        {
          "name": "",
          "type": "bool"
        }
      ],
      "payable": false,
      "stateMutability": "view",
      "type": "function"
    },
    {
      "constant": true,
      "inputs": [],
      "name": "buildCount",
      "outputs": [
        {
          "name": "",
          "type": "uint256"
        }
      ],
      "payable": false,
      "stateMutability": "view",
      "type": "function"
    },
    {
      "constant": true,
      "inputs": [
        {
          "name": "",
          "type": "uint256"
        }
      ],
      "name": "landIndexToApproved",
      "outputs": [
        {
          "name": "",
          "type": "address"
        }
      ],
      "payable": false,
      "stateMutability": "view",
      "type": "function"
    },
    {
      "constant": false,
      "inputs": [],
      "name": "unpause",
      "outputs": [],
      "payable": false,
      "stateMutability": "nonpayable",
      "type": "function"
    },
    {
      "constant": true,
      "inputs": [],
      "name": "paused",
      "outputs": [
        {
          "name": "",
          "type": "bool"
        }
      ],
      "payable": false,
      "stateMutability": "view",
      "type": "function"
    },
    {
      "constant": true,
      "inputs": [],
      "name": "gameStatus",
      "outputs": [
        {
          "name": "",
          "type": "uint256"
        }
      ],
      "payable": false,
      "stateMutability": "view",
      "type": "function"
    },
    {
      "constant": true,
      "inputs": [],
      "name": "secondsPerBlock",
      "outputs": [
        {
          "name": "",
          "type": "uint256"
        }
      ],
      "payable": false,
      "stateMutability": "view",
      "type": "function"
    },
    {
      "constant": false,
      "inputs": [],
      "name": "pause",
      "outputs": [],
      "payable": false,
      "stateMutability": "nonpayable",
      "type": "function"
    },
    {
      "constant": true,
      "inputs": [],
      "name": "owner",
      "outputs": [
        {
          "name": "",
          "type": "address"
        }
      ],
      "payable": false,
      "stateMutability": "view",
      "type": "function"
    },
    {
      "constant": true,
      "inputs": [
        {
          "name": "",
          "type": "uint256"
        }
      ],
      "name": "cooldowns",
      "outputs": [
        {
          "name": "",
          "type": "uint32"
        }
      ],
      "payable": false,
      "stateMutability": "view",
      "type": "function"
    },
    {
      "constant": true,
      "inputs": [
        {
          "name": "",
          "type": "uint256"
        }
      ],
      "name": "forSalePrice",
      "outputs": [
        {
          "name": "",
          "type": "uint8"
        }
      ],
      "payable": false,
      "stateMutability": "view",
      "type": "function"
    },
    {
      "constant": true,
      "inputs": [
        {
          "name": "",
          "type": "uint256"
        }
      ],
      "name": "properties",
      "outputs": [
        {
          "name": "id",
          "type": "uint256"
        },
        {
          "name": "name",
          "type": "string"
        },
        {
          "name": "buildTime",
          "type": "uint64"
        },
        {
          "name": "lat",
          "type": "int64"
        },
        {
          "name": "long",
          "type": "int64"
        }
      ],
      "payable": false,
      "stateMutability": "view",
      "type": "function"
    },
    {
      "anonymous": false,
      "inputs": [
        {
          "indexed": false,
          "name": "owner",
          "type": "address"
        },
        {
          "indexed": false,
          "name": "name",
          "type": "string"
        },
        {
          "indexed": false,
          "name": "landId",
          "type": "uint256"
        },
        {
          "indexed": false,
          "name": "lat",
          "type": "int256"
        },
        {
          "indexed": false,
          "name": "long",
          "type": "int256"
        },
        {
          "indexed": false,
          "name": "id",
          "type": "uint256"
        }
      ],
      "name": "Build",
      "type": "event"
    },
    {
      "anonymous": false,
      "inputs": [
        {
          "indexed": false,
          "name": "landId",
          "type": "uint256"
        },
        {
          "indexed": false,
          "name": "name",
          "type": "string"
        },
        {
          "indexed": false,
          "name": "price",
          "type": "uint8"
        }
      ],
      "name": "Sale",
      "type": "event"
    },
    {
      "anonymous": false,
      "inputs": [
        {
          "indexed": false,
          "name": "from",
          "type": "address"
        },
        {
          "indexed": false,
          "name": "to",
          "type": "address"
        },
        {
          "indexed": false,
          "name": "tokenId",
          "type": "uint256"
        }
      ],
      "name": "Transfer",
      "type": "event"
    },
    {
      "anonymous": false,
      "inputs": [
        {
          "indexed": false,
          "name": "newContract",
          "type": "address"
        }
      ],
      "name": "ContractUpgrade",
      "type": "event"
    },
    {
      "anonymous": false,
      "inputs": [
        {
          "indexed": false,
          "name": "error",
          "type": "string"
        }
      ],
      "name": "NotOwner",
      "type": "event"
    },
    {
      "anonymous": false,
      "inputs": [
        {
          "indexed": true,
          "name": "previousOwner",
          "type": "address"
        },
        {
          "indexed": true,
          "name": "newOwner",
          "type": "address"
        }
      ],
      "name": "OwnershipTransferred",
      "type": "event"
    },
    {
      "constant": false,
      "inputs": [
        {
          "name": "secs",
          "type": "uint256"
        }
      ],
      "name": "setSecondsPerBlock",
      "outputs": [],
      "payable": false,
      "stateMutability": "nonpayable",
      "type": "function"
    },
    {
      "constant": false,
      "inputs": [
        {
          "name": "_landId",
          "type": "uint256"
        },
        {
          "name": "_price",
          "type": "uint256"
        }
      ],
      "name": "putForSale",
      "outputs": [],
      "payable": false,
      "stateMutability": "nonpayable",
      "type": "function"
    },
    {
      "constant": false,
      "inputs": [
        {
          "name": "_landId",
          "type": "uint256"
        }
      ],
      "name": "buyLand",
      "outputs": [],
      "payable": true,
      "stateMutability": "payable",
      "type": "function"
    },
    {
      "constant": false,
      "inputs": [
        {
          "name": "_name",
          "type": "string"
        },
        {
          "name": "_lat",
          "type": "int256"
        },
        {
          "name": "_long",
          "type": "int256"
        }
      ],
      "name": "createLand",
      "outputs": [],
      "payable": false,
      "stateMutability": "nonpayable",
      "type": "function"
    }
  ],
  "bytecode": "0x606060405260008060146101000a81548160ff0219169083151502179055506101606040519081016040528061025863ffffffff1663ffffffff16815260200161070863ffffffff1663ffffffff168152602001610e1063ffffffff1663ffffffff168152602001611c2063ffffffff1663ffffffff16815260200161384063ffffffff1663ffffffff16815260200161708063ffffffff1663ffffffff16815260200161e10063ffffffff1663ffffffff1681526020016201518063ffffffff1663ffffffff1681526020016202a30063ffffffff1663ffffffff1681526020016205460063ffffffff1663ffffffff16815260200162093a8063ffffffff1663ffffffff16815250600190600b6200011b9291906200016c565b50600f6003556017600555336000806101000a81548173ffffffffffffffffffffffffffffffffffffffff021916908373ffffffffffffffffffffffffffffffffffffffff1602179055506200024c565b82600b600701600890048101928215620002035791602002820160005b83821115620001cf57835183826101000a81548163ffffffff021916908363ffffffff160217905550926020019260040160208160030104928301926001030262000189565b8015620002015782816101000a81549063ffffffff0219169055600401602081600301049283019260010302620001cf565b505b50905062000212919062000216565b5090565b6200024991905b808211156200024557600081816101000a81549063ffffffff0219169055506001016200021d565b5090565b90565b61168d806200025c6000396000f3006060604052600436106100fc576000357c0100000000000000000000000000000000000000000000000000000000900463ffffffff16806313af40351461010157806325e5d9971461013a5780632831f2f41461019d5780632cf9c5b6146101d85780632f1a04e5146102015780633cd76be2146102645780633f4ba83a146102905780635663896e146102a55780635c975abb146102c85780636cc6f9bb146102f5578063722fed7e146103355780637a7d49371461035e5780638456cb59146103875780638da5cb5b1461039c5780639d6fac6f146103f1578063ced3955814610434578063e6c173501461044c578063f7b1080814610489575b600080fd5b341561010c57600080fd5b610138600480803573ffffffffffffffffffffffffffffffffffffffff1690602001909190505061057e565b005b341561014557600080fd5b61015b6004808035906020019091905050610658565b604051808273ffffffffffffffffffffffffffffffffffffffff1673ffffffffffffffffffffffffffffffffffffffff16815260200191505060405180910390f35b34156101a857600080fd5b6101be600480803590602001909190505061068b565b604051808215151515815260200191505060405180910390f35b34156101e357600080fd5b6101eb6106ab565b6040518082815260200191505060405180910390f35b341561020c57600080fd5b61022260048080359060200190919050506106b1565b604051808273ffffffffffffffffffffffffffffffffffffffff1673ffffffffffffffffffffffffffffffffffffffff16815260200191505060405180910390f35b341561026f57600080fd5b61028e60048080359060200190919080359060200190919050506106e4565b005b341561029b57600080fd5b6102a36109bf565b005b34156102b057600080fd5b6102c66004808035906020019091905050610a51565b005b34156102d357600080fd5b6102db610af5565b604051808215151515815260200191505060405180910390f35b341561030057600080fd5b61033360048080359060200190820180359060200191909192908035906020019091908035906020019091905050610b08565b005b341561034057600080fd5b610348610baa565b6040518082815260200191505060405180910390f35b341561036957600080fd5b610371610bb0565b6040518082815260200191505060405180910390f35b341561039257600080fd5b61039a610bb6565b005b34156103a757600080fd5b6103af610c4a565b604051808273ffffffffffffffffffffffffffffffffffffffff1673ffffffffffffffffffffffffffffffffffffffff16815260200191505060405180910390f35b34156103fc57600080fd5b6104126004808035906020019091905050610c6f565b604051808263ffffffff1663ffffffff16815260200191505060405180910390f35b61044a6004808035906020019091905050610c9e565b005b341561045757600080fd5b61046d6004808035906020019091905050610db1565b604051808260ff1660ff16815260200191505060405180910390f35b341561049457600080fd5b6104aa6004808035906020019091905050610dd1565b60405180868152602001806020018567ffffffffffffffff1667ffffffffffffffff1681526020018460070b60070b81526020018360070b60070b815260200182810382528681815460018160011615610100020316600290048152602001915080546001816001161561010002031660029004801561056b5780601f106105405761010080835404028352916020019161056b565b820191906000526020600020905b81548152906001019060200180831161054e57829003601f168201915b5050965050505050505060405180910390f35b6000809054906101000a900473ffffffffffffffffffffffffffffffffffffffff1673ffffffffffffffffffffffffffffffffffffffff163373ffffffffffffffffffffffffffffffffffffffff161415156105d957600080fd5b600073ffffffffffffffffffffffffffffffffffffffff168173ffffffffffffffffffffffffffffffffffffffff161415151561061557600080fd5b806000806101000a81548173ffffffffffffffffffffffffffffffffffffffff021916908373ffffffffffffffffffffffffffffffffffffffff16021790555050565b600a6020528060005260406000206000915054906101000a900473ffffffffffffffffffffffffffffffffffffffff1681565b60086020528060005260406000206000915054906101000a900460ff1681565b60045481565b600c6020528060005260406000206000915054906101000a900473ffffffffffffffffffffffffffffffffffffffff1681565b6106ec611460565b3373ffffffffffffffffffffffffffffffffffffffff16600a600085815260200190815260200160002060009054906101000a900473ffffffffffffffffffffffffffffffffffffffff1673ffffffffffffffffffffffffffffffffffffffff1614151561075957600080fd5b6000821015151561076957600080fd5b60016008600085815260200190815260200160002060006101000a81548160ff021916908315150217905550816009600085815260200190815260200160002060006101000a81548160ff021916908360ff1602179055506006838154811015156107d057fe5b906000526020600020906003020160a0604051908101604052908160008201548152602001600182018054600181600116156101000203166002900480601f01602080910402602001604051908101604052809291908181526020018280546001816001161561010002031660029004801561088d5780601f106108625761010080835404028352916020019161088d565b820191906000526020600020905b81548152906001019060200180831161087057829003601f168201915b505050505081526020016002820160009054906101000a900467ffffffffffffffff1667ffffffffffffffff1667ffffffffffffffff1681526020016002820160089054906101000a900460070b60070b60070b81526020016002820160109054906101000a900460070b60070b60070b8152505090507ffef8c30e86dc46579544226bba0460f62e7429d178d5da1404b45af3b2e3fbef8382602001518460405180848152602001806020018360ff1660ff168152602001828103825284818151815260200191508051906020019080838360005b8381101561097e578082015181840152602081019050610963565b50505050905090810190601f1680156109ab5780820380516001836020036101000a031916815260200191505b5094505050505060405180910390a1505050565b6000809054906101000a900473ffffffffffffffffffffffffffffffffffffffff1673ffffffffffffffffffffffffffffffffffffffff163373ffffffffffffffffffffffffffffffffffffffff16141515610a1a57600080fd5b600060149054906101000a900460ff161515610a3557600080fd5b60008060146101000a81548160ff021916908315150217905550565b6000809054906101000a900473ffffffffffffffffffffffffffffffffffffffff1673ffffffffffffffffffffffffffffffffffffffff163373ffffffffffffffffffffffffffffffffffffffff16141515610aac57600080fd5b60016000600b81101515610abc57fe5b600891828204019190066004029054906101000a900463ffffffff1663ffffffff1681101515610aeb57600080fd5b8060038190555050565b600060149054906101000a900460ff1681565b6000809054906101000a900473ffffffffffffffffffffffffffffffffffffffff1673ffffffffffffffffffffffffffffffffffffffff163373ffffffffffffffffffffffffffffffffffffffff16141515610b6357600080fd5b610ba384848080601f0160208091040260200160405190810160405280939291908181526020018383808284378201915050505050508383336000610e43565b5050505050565b60055481565b60035481565b6000809054906101000a900473ffffffffffffffffffffffffffffffffffffffff1673ffffffffffffffffffffffffffffffffffffffff163373ffffffffffffffffffffffffffffffffffffffff16141515610c1157600080fd5b600060149054906101000a900460ff16151515610c2d57600080fd5b6001600060146101000a81548160ff021916908315150217905550565b6000809054906101000a900473ffffffffffffffffffffffffffffffffffffffff1681565b600181600b81101515610c7e57fe5b60089182820401919006600402915054906101000a900463ffffffff1681565b60006008600083815260200190815260200160002060009054906101000a900460ff161515610ccc57600080fd5b3373ffffffffffffffffffffffffffffffffffffffff16600a600084815260200190815260200160002060009054906101000a900473ffffffffffffffffffffffffffffffffffffffff1673ffffffffffffffffffffffffffffffffffffffff1614151515610d3a57600080fd5b6009600083815260200190815260200160002060009054906101000a900460ff1660ff163410151515610d6c57600080fd5b600a600083815260200190815260200160002060009054906101000a900473ffffffffffffffffffffffffffffffffffffffff169050610dad81338461125e565b5050565b60096020528060005260406000206000915054906101000a900460ff1681565b600681815481101515610de057fe5b906000526020600020906003020160009150905080600001549080600101908060020160009054906101000a900467ffffffffffffffff16908060020160089054906101000a900460070b908060020160109054906101000a900460070b905085565b6000610e4d611460565b60008060009054906101000a900473ffffffffffffffffffffffffffffffffffffffff1673ffffffffffffffffffffffffffffffffffffffff163373ffffffffffffffffffffffffffffffffffffffff16141515610eaa57600080fd5b8760076000826040518082805190602001908083835b602083101515610ee55780518252602082019150602081019050602083039250610ec0565b6001836020036101000a038019825116818451168082178552505050505050905001915050604051809103902060019004815260200190815260200160002060009054906101000a900460ff16151515610f3e57600080fd5b8760070b88141515610f4f57600080fd5b8660070b87141515610f6057600080fd5b60046000815480929190600101919050555060a0604051908101604052808a6040518082805190602001908083835b602083101515610fb45780518252602082019150602081019050602083039250610f8f565b6001836020036101000a03801982511681845116808217855250505050505090500191505060405180910390206001900481526020018a81526020014267ffffffffffffffff1681526020018960070b81526020018860070b815250925060016006805480600101828161102891906114a6565b916000526020600020906003020160008690919091506000820151816000015560208201518160010190805190602001906110649291906114d8565b5060408201518160020160006101000a81548167ffffffffffffffff021916908367ffffffffffffffff16021790555060608201518160020160086101000a81548167ffffffffffffffff021916908360070b67ffffffffffffffff16021790555060808201518160020160106101000a81548167ffffffffffffffff021916908360070b67ffffffffffffffff16021790555050500391506001600760008560000151815260200190815260200160002060006101000a81548160ff0219169083151502179055508163ffffffff168214151561114157600080fd5b7fd05087beb86076b4745b52c39dd5c3f003943378fa4df4f1869374167014e2a7868a84866060015187608001518860000151604051808773ffffffffffffffffffffffffffffffffffffffff1673ffffffffffffffffffffffffffffffffffffffff168152602001806020018681526020018560070b81526020018460070b8152602001838152602001828103825287818151815260200191508051906020019080838360005b838110156112045780820151818401526020810190506111e9565b50505050905090810190601f1680156112315780820380516001836020036101000a031916815260200191505b5097505050505050505060405180910390a161124f6000878461125e565b81935050505095945050505050565b600b60008373ffffffffffffffffffffffffffffffffffffffff1673ffffffffffffffffffffffffffffffffffffffff1681526020019081526020016000206000815480929190600101919050555081600a600083815260200190815260200160002060006101000a81548173ffffffffffffffffffffffffffffffffffffffff021916908373ffffffffffffffffffffffffffffffffffffffff160217905550600073ffffffffffffffffffffffffffffffffffffffff168373ffffffffffffffffffffffffffffffffffffffff161415156113bc57600b60008473ffffffffffffffffffffffffffffffffffffffff1673ffffffffffffffffffffffffffffffffffffffff1681526020019081526020016000206000815480929190600190039190505550600c600082815260200190815260200160002060006101000a81549073ffffffffffffffffffffffffffffffffffffffff02191690555b7fddf252ad1be2c89b69c2b068fc378daa952ba7f163c4a11628f55a4df523b3ef838383604051808473ffffffffffffffffffffffffffffffffffffffff1673ffffffffffffffffffffffffffffffffffffffff1681526020018373ffffffffffffffffffffffffffffffffffffffff1673ffffffffffffffffffffffffffffffffffffffff168152602001828152602001935050505060405180910390a1505050565b60a0604051908101604052806000815260200161147b611558565b8152602001600067ffffffffffffffff168152602001600060070b8152602001600060070b81525090565b8154818355818115116114d3576003028160030283600052602060002091820191016114d2919061156c565b5b505050565b828054600181600116156101000203166002900490600052602060002090601f016020900481019282601f1061151957805160ff1916838001178555611547565b82800160010185558215611547579182015b8281111561154657825182559160200191906001019061152b565b5b50905061155491906115f4565b5090565b602060405190810160405280600081525090565b6115f191905b808211156115ed576000808201600090556001820160006115939190611619565b6002820160006101000a81549067ffffffffffffffff02191690556002820160086101000a81549067ffffffffffffffff02191690556002820160106101000a81549067ffffffffffffffff021916905550600301611572565b5090565b90565b61161691905b808211156116125760008160009055506001016115fa565b5090565b90565b50805460018160011615610100020316600290046000825580601f1061163f575061165e565b601f01602090049060005260206000209081019061165d91906115f4565b5b505600a165627a7a7230582025affc92845dc91aa1b6b09dc2b365c2fc1833515f5da419ca758858c66495150029",
  "source": "pragma solidity ^0.4.2;\r\n\r\nimport \"./landaccess.sol\";\r\n\r\n\r\n/// @title Base contract for CryptoHoosiers. Holds all common structs, events and base variables.\r\n/// @author Chris East\r\ncontract LandBase is LandAccess {\r\n    /*** EVENTS ***/\r\n\r\n    /// @dev The Build event is fired whenever a new property is generated. \r\n    event Build(address owner, string name, uint256 landId, int256 lat, int256 long, uint256 id);\r\n\r\n    /// @dev The Sale event is fired whenever a new property is put up for sale. \r\n    event Sale(uint256 landId, string name, uint8 price);\r\n\r\n    /// @dev Transfer event as defined in current draft of ERC721. Emitted every time property\r\n    ///  ownership is assigned, including builds.\r\n    event Transfer(address from, address to, uint256 tokenId);\r\n\r\n    /*** DATA TYPES ***/\r\n    /// @dev The main Kitty struct. Every cat in CryptoKitties is represented by a copy\r\n    ///  of this structure, so great care was taken to ensure that it fits neatly into\r\n    ///  exactly two 256-bit words. Note that the order of the members in this structure\r\n    ///  is important because of the byte-packing rules used by Ethereum.\r\n    ///  Ref: http://solidity.readthedocs.io/en/develop/miscellaneous.html\r\n    struct Land {\r\n        // The id of the land, each is unquie to the property\r\n        uint256 id;\r\n        string name;\r\n        //uint64 cooldownEndBlock;    // The minimum timestamp after which this land can collect rent again. \r\n        uint64 buildTime;           // The timestamp from the block when this land was 'built'.\r\n        // lat and long position of the property, filled in with the main result from google api \r\n        int64 lat;\r\n        int64 long;\r\n\r\n        //int32 value;                // The value of the property\r\n        //uint16 rent;                // The rent value of the property\r\n        //uint8 coolDownPeriod;       // The cooldown length for this property, used for collecting rent \r\n        //uint8 level;                 // The level of the property \r\n\r\n    }\r\n\r\n    struct Kitty {\r\n        // The Kitty's genetic code is packed into these 256-bits, the format is\r\n        // sooper-sekret! A cat's genes never change.\r\n        uint256 genes;\r\n\r\n        // The timestamp from the block when this cat came into existence.\r\n        uint64 birthTime;\r\n\r\n        // The minimum timestamp after which this cat can engage in breeding\r\n        // activities again. This same timestamp is used for the pregnancy\r\n        // timer (for matrons) as well as the siring cooldown.\r\n        uint64 cooldownEndBlock;\r\n\r\n        // The ID of the parents of this kitty, set to 0 for gen0 cats.\r\n        // Note that using 32-bit unsigned integers limits us to a \"mere\"\r\n        // 4 billion cats. This number might seem small until you realize\r\n        // that Ethereum currently has a limit of about 500 million\r\n        // transactions per year! So, this definitely won't be a problem\r\n        // for several years (even as Ethereum learns to scale).\r\n        uint32 matronId;\r\n        uint32 sireId;\r\n\r\n        // Set to the ID of the sire cat for matrons that are pregnant,\r\n        // zero otherwise. A non-zero value here is how we know a cat\r\n        // is pregnant. Used to retrieve the genetic material for the new\r\n        // kitten when the birth transpires.\r\n        uint32 siringWithId;\r\n\r\n        // Set to the index in the cooldown array (see below) that represents\r\n        // the current cooldown duration for this Kitty. This starts at zero\r\n        // for gen0 cats, and is initialized to floor(generation/2) for others.\r\n        // Incremented by one for each successful breeding action, regardless\r\n        // of whether this cat is acting as matron or sire.\r\n        uint16 cooldownIndex;\r\n\r\n        // The \"generation number\" of this cat. Cats minted by the CK contract\r\n        // for sale are called \"gen0\" and have a generation number of 0. The\r\n        // generation number of all other cats is the larger of the two generation\r\n        // numbers of their parents, plus one.\r\n        // (i.e. max(matron.generation, sire.generation) + 1)\r\n        uint16 generation;\r\n    }\r\n\r\n    /*** CONSTANTS ***/\r\n    /// @dev A lookup table indicating the cooldown duration after any successful\r\n    ///  breeding action, called \"pregnancy time\" for matrons and \"siring cooldown\"\r\n    ///  for sires. Designed such that the cooldown roughly doubles each time a cat\r\n    ///  is bred, encouraging owners not to just keep breeding the same cat over\r\n    ///  and over again. Caps out at one week (a cat can breed an unbounded number\r\n    ///  of times, and the maximum cooldown is always seven days).\r\n    uint32[11] public cooldowns = [\r\n        uint32(10 minutes),\r\n        uint32(30 minutes),\r\n        uint32(1 hours),\r\n        uint32(2 hours),\r\n        uint32(4 hours),\r\n        uint32(8 hours),\r\n        uint32(16 hours),\r\n        uint32(1 days),\r\n        uint32(2 days),\r\n        uint32(4 days),\r\n        uint32(7 days)\r\n    ];\r\n\r\n    // An approximation of currently how many seconds are in between blocks.\r\n    uint256 public secondsPerBlock = 15;\r\n\r\n    uint256 public buildCount;\r\n\r\n    uint public gameStatus = 23;\r\n\r\n    /*** STORAGE ***/\r\n\r\n    /// @dev An array containing the Kitty struct for all Kitties in existence. The ID\r\n    ///  of each cat is actually an index into this array. Note that ID 0 is a negacat,\r\n    ///  the unKitty, the mythical beast that is the parent of all gen0 cats. A bizarre\r\n    ///  creature that is both matron and sire... to itself! Has an invalid genetic code.\r\n    ///  In other words, cat ID 0 is invalid... ;-)\r\n    Land[] public properties;\r\n    \r\n    \r\n\r\n    mapping(uint=>bool) internal built;\r\n\r\n    mapping(uint256 => bool) public forSale;\r\n\r\n    mapping(uint256 => uint8) public forSalePrice;\r\n\r\n    /// @dev A mapping from land IDs to the address that owns them. \r\n    mapping (uint256 => address) public landIndexToOwner;\r\n\r\n    // @dev A mapping from owner address to count of tokens that address owns.\r\n    //  Used internally inside balanceOf() to resolve ownership count.\r\n    mapping (address => uint256) ownershipTokenCount;\r\n\r\n    /// @dev A mapping from KittyIDs to an address that has been approved to call\r\n    ///  transferFrom(). Each Kitty can only have one approved address for transfer\r\n    ///  at any time. A zero value means no approval is outstanding.\r\n    mapping (uint256 => address) public landIndexToApproved;\r\n\r\n    modifier notBuilt(string _name) {\r\n        require(!built[uint256(keccak256(_name))]);\r\n        _;\r\n    }\r\n\r\n    // Owner can fix how many seconds per blocks are currently observed.\r\n    function setSecondsPerBlock(uint256 secs) external onlyOwner {\r\n        require(secs < cooldowns[0]);\r\n        secondsPerBlock = secs;\r\n    }\r\n\r\n    /// @dev The address of the ClockAuction contract that handles sales of Land. This\r\n    ///  same contract handles both peer-to-peer sales\r\n    //SaleClockAuction public saleAuction;\r\n    /// @dev Assigns ownership of a specific property to an address.\r\n    function _transfer(address _from, address _to, uint256 _tokenId) internal {\r\n        // Since the number of properties is far lower than 2^32 we can't overflow this\r\n        ownershipTokenCount[_to]++;\r\n        // transfer ownership\r\n        landIndexToOwner[_tokenId] = _to;\r\n        // When creating new properties _from is 0x0, but we can't account that address.\r\n        if (_from != address(0)) {\r\n            // Decrease token count for seller\r\n            ownershipTokenCount[_from]--;\r\n            // clear any previously approved ownership exchange\r\n            delete landIndexToApproved[_tokenId];\r\n        }\r\n        // Emit the transfer event.\r\n        Transfer(_from, _to, _tokenId);\r\n    }\r\n\r\n    function putForSale (uint _landId, uint _price) public {\r\n        // require that they haven't voted before\r\n        require(landIndexToOwner[_landId] == msg.sender);\r\n        require(_price >= 0);\r\n        // record the voter as having voted \r\n        forSale[_landId] = true;\r\n        forSalePrice[_landId] = uint8(_price);\r\n        Land memory _land = properties[_landId];\r\n\r\n        // tigger voted event\r\n        Sale(_landId, _land.name, uint8(_price));\r\n\r\n    }\r\n\r\n    function buyLand (uint _landId) public payable {\r\n        require(forSale[_landId]);\r\n        require(landIndexToOwner[_landId] != msg.sender);\r\n        require(msg.value >= uint256(forSalePrice[_landId]));\r\n        address owner = landIndexToOwner[_landId];\r\n\r\n        _transfer(owner, msg.sender, _landId);\r\n    }\r\n\r\n    /// @dev An internal method that creates a new kitty and stores it. This\r\n    ///  method doesn't do any checking and should only be called when the\r\n    ///  input data is known to be valid. Will generate both a Birth event\r\n    ///  and a Transfer event.\r\n    /// _matronId The kitty ID of the matron of this cat (zero for gen0)\r\n    ///  _sireId The kitty ID of the sire of this cat (zero for gen0)\r\n    ///  _generation The generation number of this cat, must be computed by caller.\r\n    /// m _genes The kitty's genetic code.\r\n    /// ram _owner The inital owner of this cat, must be non-zero (except for the unKitty, ID 0)\r\n    // function _createKitty(\r\n    //     uint256 _matronId,\r\n    //     uint256 _sireId,\r\n    //     uint256 _generation,\r\n    //     uint256 _genes,\r\n    //     address _owner\r\n    // )\r\n    //     internal\r\n    //     returns (uint)\r\n    // {\r\n    //     // These requires are not strictly necessary, our calling code should make\r\n    //     // sure that these conditions are never broken. However! _createKitty() is already\r\n    //     // an expensive call (for storage), and it doesn't hurt to be especially careful\r\n    //     // to ensure our data structures are always valid.\r\n    //     require(_matronId == uint256(uint32(_matronId)));\r\n    //     require(_sireId == uint256(uint32(_sireId)));\r\n    //     require(_generation == uint256(uint16(_generation)));\r\n    //     // New kitty starts with the same cooldown as parent gen/2\r\n    //     uint16 cooldownIndex = uint16(_generation / 2);\r\n    //     if (cooldownIndex > 13) {\r\n    //         cooldownIndex = 13;\r\n    //     }\r\n    //     Kitty memory _kitty = Kitty({\r\n    //         genes: _genes,\r\n    //         birthTime: uint64(now),\r\n    //         cooldownEndBlock: 0,\r\n    //         matronId: uint32(_matronId),\r\n    //         sireId: uint32(_sireId),\r\n    //         siringWithId: 0,\r\n    //         cooldownIndex: cooldownIndex,\r\n    //         generation: uint16(_generation)\r\n    //     });\r\n    //     //uint256 newKittenId = kitties.push(_kitty) - 1;\r\n    //     // It's probably never going to happen, 4 billion cats is A LOT, but\r\n    //     // let's just be 100% sure we never let this happen.\r\n    //     //equire(newKittenId == uint256(uint32(newKittenId)));\r\n    //     // emit the birth event \r\n    //     // Birth(\r\n    //     //     _owner,\r\n    //     //     newKittenId,\r\n    //     //     uint256(_kitty.matronId),\r\n    //     //     uint256(_kitty.sireId),\r\n    //     //     _kitty.genes\r\n    //     // );\r\n    //     // // This will assign ownership, and also emit the Transfer event as\r\n    //     // // per ERC721 draft\r\n    //     // _transfer(0, _owner, newKittenId);\r\n    //     // return newKittenId;\r\n    // }\r\n    /// @dev An internal method that creates a new kitty and stores it. This\r\n    ///  method doesn't do any checking and should only be called when the\r\n    ///  input data is known to be valid. Will generate both a Birth event\r\n    ///  and a Transfer event.\r\n    /// param _matronId The kitty ID of the matron of this cat (zero for gen0)\r\n    /// param _sireId The kitty ID of the sire of this cat (zero for gen0)\r\n    /// param _generation The generation number of this cat, must be computed by caller.\r\n    /// param _genes The kitty's genetic code.\r\n    /// param _owner The inital owner of this cat, must be non-zero (except for the unKitty, ID 0)\r\n    function _createLand(\r\n        string _name,\r\n        int256 _lat,\r\n        int256 _long,\r\n        address _owner,\r\n        uint256 _coolDownPeriod\r\n    )\r\n        internal onlyOwner notBuilt(_name)\r\n        returns (uint)\r\n    {\r\n        // These requires are not strictly necessary, our calling code should make\r\n        // sure that these conditions are never broken. However! _createKitty() is already\r\n        // an expensive call (for storage), and it doesn't hurt to be especially careful\r\n        // to ensure our data structures are always valid.\r\n        require(_lat == int256(int64(_lat)));\r\n        require(_long == int256(int64(_long)));\r\n        \r\n        buildCount++;\r\n        //uint16 cooldownIndex = uint16(_generation / 2);\r\n\r\n        // if (cooldownIndex > 13) {\r\n        //     cooldownIndex = 13;\r\n        // }\r\n        // The id of the land, each is unquie to the property\r\n        \r\n        Land memory _land = Land({\r\n            id: uint256(keccak256(_name)),\r\n            name: string(_name),\r\n            buildTime: uint64(now),\r\n            //cooldownEndBlock: uint64(0),\r\n            lat: int64(_lat),\r\n            long: int64(_long)//,\r\n            //value: uint16(0),\r\n            //rent: uint16(0),\r\n            //coolDownPeriod: uint8(_coolDownPeriod),\r\n            //level: uint8(1)\r\n        });\r\n        uint256 newLandId = properties.push(_land) - 1;\r\n        built[_land.id] = true;\r\n\r\n        // It's probably never going to happen, 4 billion cats is A LOT, but\r\n        // let's just be 100% sure we never let this happen.\r\n        require(newLandId == uint256(uint32(newLandId)));\r\n\r\n        // emit the birth event ~ event Build(address owner, string name, uint256 landId, uint256 lat, uint256 long);\r\n        Build(_owner, _name, newLandId, _land.lat, _land.long, _land.id);\r\n\r\n\r\n\r\n        // This will assign ownership, and also emit the Transfer event as\r\n        // per ERC721 draft\r\n        _transfer(0, _owner, newLandId);\r\n\r\n        return newLandId;\r\n    }\r\n\r\n    function createLand(string _name, int256 _lat, int256 _long) external onlyOwner {\r\n        //require() - Require the hash of this is not in the array already\r\n        _createLand(_name, _lat, _long, msg.sender, 0);\r\n    }\r\n\r\n    \r\n}",
  "sourcePath": "C:\\Users\\heads\\Documents\\Research\\Dapps\\land\\contracts\\LandBase.sol",
  "compiler": {
    "name": "solc",
    "version": "0.4.19+commit.c4cbbb05.Emscripten.clang"
  },
  "schemaVersion": "2.0.0",
  "updatedAt": "2018-04-18T13:50:10.804Z"
}