{
  "contractName": "LandAccessControl",
  "abi": [
    {
      "constant": true,
      "inputs": [],
      "name": "paused",
      "outputs": [
        {
          "name": "",
          "type": "bool"
        }
      ],
      "payable": false,
      "stateMutability": "view",
      "type": "function"
    },
    {
      "constant": true,
      "inputs": [],
      "name": "ownerAddress",
      "outputs": [
        {
          "name": "",
          "type": "address"
        }
      ],
      "payable": false,
      "stateMutability": "view",
      "type": "function"
    },
    {
      "anonymous": false,
      "inputs": [
        {
          "indexed": false,
          "name": "newContract",
          "type": "address"
        }
      ],
      "name": "ContractUpgrade",
      "type": "event"
    },
    {
      "constant": false,
      "inputs": [
        {
          "name": "_newOwner",
          "type": "address"
        }
      ],
      "name": "setOwner",
      "outputs": [],
      "payable": false,
      "stateMutability": "nonpayable",
      "type": "function"
    },
    {
      "constant": false,
      "inputs": [],
      "name": "pause",
      "outputs": [],
      "payable": false,
      "stateMutability": "nonpayable",
      "type": "function"
    },
    {
      "constant": false,
      "inputs": [],
      "name": "unpause",
      "outputs": [],
      "payable": false,
      "stateMutability": "nonpayable",
      "type": "function"
    }
  ],
  "bytecode": "0x606060405260008060146101000a81548160ff021916908315150217905550341561002957600080fd5b6103bb806100386000396000f30060606040526004361061006d576000357c0100000000000000000000000000000000000000000000000000000000900463ffffffff16806313af4035146100725780633f4ba83a146100ab5780635c975abb146100c05780638456cb59146100ed5780638f84aa0914610102575b600080fd5b341561007d57600080fd5b6100a9600480803573ffffffffffffffffffffffffffffffffffffffff16906020019091905050610157565b005b34156100b657600080fd5b6100be610231565b005b34156100cb57600080fd5b6100d36102c3565b604051808215151515815260200191505060405180910390f35b34156100f857600080fd5b6101006102d6565b005b341561010d57600080fd5b61011561036a565b604051808273ffffffffffffffffffffffffffffffffffffffff1673ffffffffffffffffffffffffffffffffffffffff16815260200191505060405180910390f35b6000809054906101000a900473ffffffffffffffffffffffffffffffffffffffff1673ffffffffffffffffffffffffffffffffffffffff163373ffffffffffffffffffffffffffffffffffffffff161415156101b257600080fd5b600073ffffffffffffffffffffffffffffffffffffffff168173ffffffffffffffffffffffffffffffffffffffff16141515156101ee57600080fd5b806000806101000a81548173ffffffffffffffffffffffffffffffffffffffff021916908373ffffffffffffffffffffffffffffffffffffffff16021790555050565b6000809054906101000a900473ffffffffffffffffffffffffffffffffffffffff1673ffffffffffffffffffffffffffffffffffffffff163373ffffffffffffffffffffffffffffffffffffffff1614151561028c57600080fd5b600060149054906101000a900460ff1615156102a757600080fd5b60008060146101000a81548160ff021916908315150217905550565b600060149054906101000a900460ff1681565b6000809054906101000a900473ffffffffffffffffffffffffffffffffffffffff1673ffffffffffffffffffffffffffffffffffffffff163373ffffffffffffffffffffffffffffffffffffffff1614151561033157600080fd5b600060149054906101000a900460ff1615151561034d57600080fd5b6001600060146101000a81548160ff021916908315150217905550565b6000809054906101000a900473ffffffffffffffffffffffffffffffffffffffff16815600a165627a7a72305820ac0fe6919cd2a912daee1f9a9dd8176eed87691e1d6a394201276ca4a75c5e0d0029",
  "source": "pragma solidity ^0.4.2;\r\n\r\n/// @title Contract that manages special access privileges for the DAPP.\r\n/// @author Chris East\r\ncontract LandAccessControl {\r\n    // This facet controls access control for Land. \r\n    //     - The Owner: The Owner can reassign other roles and change the addresses of our dependent smart\r\n    //         contracts. It is also the only role that can unpause the smart contract. It is initially\r\n    //         set to the address that created the smart contract.\r\n    //\r\n    //     \r\n\r\n    /// @dev Emited when contract is upgraded - See README.md for updgrade plan\r\n    event ContractUpgrade(address newContract);\r\n\r\n    // The addresses of the accounts (or contracts) that can execute actions within each roles.\r\n    address public ownerAddress;\r\n    //address public devAddress;\r\n    \r\n\r\n    // @dev Keeps track whether the contract is paused. When that is true, most actions are blocked\r\n    bool public paused = false;\r\n\r\n    /// @dev Access modifier for Owner-only functionality\r\n    modifier onlyOwner() {\r\n        require(msg.sender == ownerAddress);\r\n        _;\r\n    }\r\n\r\n\r\n    /// @dev Assigns a new address to act as the Owner. Only available to the current Owner.\r\n    /// @param _newOwner The address of the new Owner\r\n    function setOwner(address _newOwner) external onlyOwner {\r\n        require(_newOwner != address(0));\r\n        ownerAddress = _newOwner;\r\n    }\r\n\r\n    /*** Pausable functionality adapted from OpenZeppelin ***/\r\n\r\n    /// @dev Modifier to allow actions only when the contract IS NOT paused\r\n    modifier whenNotPaused() {\r\n        require(!paused);\r\n        _;\r\n    }\r\n\r\n    /// @dev Modifier to allow actions only when the contract IS paused\r\n    modifier whenPaused {\r\n        require(paused);\r\n        _;\r\n    }\r\n\r\n    /// @dev Called by any \"C-level\" role to pause the contract. Used only when\r\n    ///  a bug or exploit is detected and we need to limit damage.\r\n    function pause() external onlyOwner whenNotPaused {\r\n        paused = true;\r\n    }\r\n\r\n    /// @dev Unpauses the smart contract. Can only be called by the Owner, \r\n    /// @notice This is public rather than external so it can be called by\r\n    ///  derived contracts.\r\n    function unpause() public onlyOwner whenPaused {\r\n        // can't unpause if contract was upgraded\r\n        paused = false;\r\n    }\r\n}\r\n",
  "sourcePath": "C:\\Users\\heads\\Documents\\Research\\Dapps\\land\\contracts\\LandAccess.sol",
  "compiler": {
    "name": "solc",
    "version": "0.4.19+commit.c4cbbb05.Emscripten.clang"
  },
  "schemaVersion": "2.0.0",
  "updatedAt": "2018-04-09T02:07:02.684Z"
}