{
  "contractName": "LandFactory",
  "abi": [
    {
      "constant": true,
      "inputs": [
        {
          "name": "",
          "type": "uint256"
        }
      ],
      "name": "landOwners",
      "outputs": [
        {
          "name": "",
          "type": "address"
        }
      ],
      "payable": false,
      "stateMutability": "view",
      "type": "function"
    },
    {
      "constant": true,
      "inputs": [
        {
          "name": "",
          "type": "uint256"
        }
      ],
      "name": "landToOwner",
      "outputs": [
        {
          "name": "",
          "type": "address"
        }
      ],
      "payable": false,
      "stateMutability": "view",
      "type": "function"
    },
    {
      "constant": true,
      "inputs": [],
      "name": "owner",
      "outputs": [
        {
          "name": "",
          "type": "address"
        }
      ],
      "payable": false,
      "stateMutability": "view",
      "type": "function"
    },
    {
      "constant": true,
      "inputs": [],
      "name": "ownersCount",
      "outputs": [
        {
          "name": "",
          "type": "uint256"
        }
      ],
      "payable": false,
      "stateMutability": "view",
      "type": "function"
    },
    {
      "constant": true,
      "inputs": [
        {
          "name": "",
          "type": "uint256"
        }
      ],
      "name": "lands",
      "outputs": [
        {
          "name": "name",
          "type": "string"
        }
      ],
      "payable": false,
      "stateMutability": "view",
      "type": "function"
    },
    {
      "constant": false,
      "inputs": [
        {
          "name": "newOwner",
          "type": "address"
        }
      ],
      "name": "transferOwnership",
      "outputs": [],
      "payable": false,
      "stateMutability": "nonpayable",
      "type": "function"
    },
    {
      "constant": true,
      "inputs": [
        {
          "name": "",
          "type": "uint256"
        }
      ],
      "name": "properties",
      "outputs": [
        {
          "name": "id",
          "type": "uint256"
        },
        {
          "name": "lat",
          "type": "int256"
        },
        {
          "name": "long",
          "type": "int256"
        },
        {
          "name": "name",
          "type": "string"
        },
        {
          "name": "owned",
          "type": "bool"
        },
        {
          "name": "rank",
          "type": "uint256"
        },
        {
          "name": "rent",
          "type": "uint256"
        },
        {
          "name": "readyTime",
          "type": "uint32"
        },
        {
          "name": "cooldownTime",
          "type": "uint256"
        }
      ],
      "payable": false,
      "stateMutability": "view",
      "type": "function"
    },
    {
      "anonymous": false,
      "inputs": [
        {
          "indexed": false,
          "name": "id",
          "type": "uint256"
        },
        {
          "indexed": false,
          "name": "lat",
          "type": "int256"
        },
        {
          "indexed": false,
          "name": "long",
          "type": "int256"
        },
        {
          "indexed": false,
          "name": "name",
          "type": "string"
        }
      ],
      "name": "NewLand",
      "type": "event"
    },
    {
      "anonymous": false,
      "inputs": [
        {
          "indexed": true,
          "name": "previousOwner",
          "type": "address"
        },
        {
          "indexed": true,
          "name": "newOwner",
          "type": "address"
        }
      ],
      "name": "OwnershipTransferred",
      "type": "event"
    },
    {
      "constant": false,
      "inputs": [
        {
          "name": "_name",
          "type": "string"
        }
      ],
      "name": "createLand",
      "outputs": [],
      "payable": false,
      "stateMutability": "nonpayable",
      "type": "function"
    },
    {
      "constant": false,
      "inputs": [
        {
          "name": "landId",
          "type": "uint256"
        }
      ],
      "name": "buy",
      "outputs": [
        {
          "name": "",
          "type": "uint256"
        }
      ],
      "payable": false,
      "stateMutability": "nonpayable",
      "type": "function"
    },
    {
      "constant": true,
      "inputs": [],
      "name": "getLandOwners",
      "outputs": [
        {
          "name": "",
          "type": "address[16]"
        }
      ],
      "payable": false,
      "stateMutability": "view",
      "type": "function"
    }
  ],
  "bytecode": "0x6060604052336000806101000a81548173ffffffffffffffffffffffffffffffffffffffff021916908373ffffffffffffffffffffffffffffffffffffffff160217905550610b0a806100536000396000f3006060604052600436106100a4576000357c0100000000000000000000000000000000000000000000000000000000900463ffffffff1680631a0f76b1146100a95780635f28c6bf1461010c57806369b441ac1461016f5780638da5cb5b146101c0578063b5eddba314610215578063b948854614610243578063d96a094a1461026c578063e261f1e5146102a3578063f2fde38b1461035c578063f7b1080814610395575b600080fd5b34156100b457600080fd5b6100ca6004808035906020019091905050610496565b604051808273ffffffffffffffffffffffffffffffffffffffff1673ffffffffffffffffffffffffffffffffffffffff16815260200191505060405180910390f35b341561011757600080fd5b61012d60048080359060200190919050506104cb565b604051808273ffffffffffffffffffffffffffffffffffffffff1673ffffffffffffffffffffffffffffffffffffffff16815260200191505060405180910390f35b341561017a57600080fd5b6101826104fe565b6040518082601060200280838360005b838110156101ad578082015181840152602081019050610192565b5050505090500191505060405180910390f35b34156101cb57600080fd5b6101d361057f565b604051808273ffffffffffffffffffffffffffffffffffffffff1673ffffffffffffffffffffffffffffffffffffffff16815260200191505060405180910390f35b341561022057600080fd5b610241600480803590602001908201803590602001919091929050506105a4565b005b341561024e57600080fd5b61025661068c565b6040518082815260200191505060405180910390f35b341561027757600080fd5b61028d6004808035906020019091905050610692565b6040518082815260200191505060405180910390f35b34156102ae57600080fd5b6102c46004808035906020019091905050610707565b604051808060200182810382528381815460018160011615610100020316600290048152602001915080546001816001161561010002031660029004801561034d5780601f106103225761010080835404028352916020019161034d565b820191906000526020600020905b81548152906001019060200180831161033057829003601f168201915b50509250505060405180910390f35b341561036757600080fd5b610393600480803573ffffffffffffffffffffffffffffffffffffffff16906020019091905050610730565b005b34156103a057600080fd5b6103b66004808035906020019091905050610885565b604051808a815260200189815260200188815260200180602001871515151581526020018681526020018581526020018463ffffffff1663ffffffff16815260200183815260200182810382528881815460018160011615610100020316600290048152602001915080546001816001161561010002031660029004801561047f5780601f106104545761010080835404028352916020019161047f565b820191906000526020600020905b81548152906001019060200180831161046257829003601f168201915b50509a505050505050505050505060405180910390f35b6003816010811015156104a557fe5b016000915054906101000a900473ffffffffffffffffffffffffffffffffffffffff1681565b60136020528060005260406000206000915054906101000a900473ffffffffffffffffffffffffffffffffffffffff1681565b610506610957565b6003601080602002604051908101604052809291908260108015610575576020028201915b8160009054906101000a900473ffffffffffffffffffffffffffffffffffffffff1673ffffffffffffffffffffffffffffffffffffffff168152602001906001019080831161052b575b5050505050905090565b6000809054906101000a900473ffffffffffffffffffffffffffffffffffffffff1681565b6000809054906101000a900473ffffffffffffffffffffffffffffffffffffffff1673ffffffffffffffffffffffffffffffffffffffff163373ffffffffffffffffffffffffffffffffffffffff161415156105ff57600080fd5b6000601460003373ffffffffffffffffffffffffffffffffffffffff1673ffffffffffffffffffffffffffffffffffffffff1681526020019081526020016000205414151561064d57600080fd5b61068882828080601f0160208091040260200160405190810160405280939291908181526020018383808284378201915050505050506108fe565b5050565b60155481565b60008082101580156106a55750600f8211155b15156106b057600080fd5b336003836010811015156106c057fe5b0160006101000a81548173ffffffffffffffffffffffffffffffffffffffff021916908373ffffffffffffffffffffffffffffffffffffffff160217905550819050919050565b60028181548110151561071657fe5b906000526020600020900160009150905080600001905081565b6000809054906101000a900473ffffffffffffffffffffffffffffffffffffffff1673ffffffffffffffffffffffffffffffffffffffff163373ffffffffffffffffffffffffffffffffffffffff1614151561078b57600080fd5b600073ffffffffffffffffffffffffffffffffffffffff168173ffffffffffffffffffffffffffffffffffffffff16141515156107c757600080fd5b8073ffffffffffffffffffffffffffffffffffffffff166000809054906101000a900473ffffffffffffffffffffffffffffffffffffffff1673ffffffffffffffffffffffffffffffffffffffff167f8be0079c531659141344cd1fd0a4f28419497f9722a3daafe3b4186f6b6457e060405160405180910390a3806000806101000a81548173ffffffffffffffffffffffffffffffffffffffff021916908373ffffffffffffffffffffffffffffffffffffffff16021790555050565b60018181548110151561089457fe5b906000526020600020906009020160009150905080600001549080600101549080600201549080600301908060040160009054906101000a900460ff16908060050154908060060154908060070160009054906101000a900463ffffffff16908060080154905089565b600280548060010182816109129190610996565b9160005260206000209001600060206040519081016040528085815250909190915060008201518160000190805190602001906109509291906109c2565b5050505050565b610200604051908101604052806010905b600073ffffffffffffffffffffffffffffffffffffffff168152602001906001900390816109685790505090565b8154818355818115116109bd578183600052602060002091820191016109bc9190610a42565b5b505050565b828054600181600116156101000203166002900490600052602060002090601f016020900481019282601f10610a0357805160ff1916838001178555610a31565b82800160010185558215610a31579182015b82811115610a30578251825591602001919060010190610a15565b5b509050610a3e9190610a71565b5090565b610a6e91905b80821115610a6a5760008082016000610a619190610a96565b50600101610a48565b5090565b90565b610a9391905b80821115610a8f576000816000905550600101610a77565b5090565b90565b50805460018160011615610100020316600290046000825580601f10610abc5750610adb565b601f016020900490600052602060002090810190610ada9190610a71565b5b505600a165627a7a7230582093a22501e668a9be1fcb80a158b7fede9307ef5525725ec060eaf01e713920480029",
  "source": "pragma solidity ^0.4.17;\r\n\r\nimport \"./ownable.sol\";\r\n\r\n\r\n// Declare contract\r\ncontract LandFactory is Ownable {\r\n    event NewLand(uint id, int lat, int long, string name);\r\n    \r\n    struct Property {\r\n        uint id;\r\n        int lat;\r\n        int long;\r\n        string name;\r\n        bool owned;\r\n        uint rank;\r\n        uint rent;\r\n        uint32 readyTime;\r\n        uint cooldownTime;\r\n    } \r\n\r\n    struct Land {\r\n        string name;\r\n    }\r\n\r\n    // All the properties owned or for sale\r\n    Property[] public properties;\r\n    Land[] public lands;\r\n\r\n    // Solidity has a unique type called an address. \r\n    //Addresses are Ethereum addresses, stored as 20 byte values. \r\n    address[16] public landOwners; // Array of eth addresses, fixed length of 16\r\n    // Mapping from id to owner address\r\n    mapping(uint => address) public landToOwner;\r\n    // Keeps track of the number of properties a land owner has\r\n    mapping (address => uint) ownerLandCount;\r\n    \r\n    // Store # of owners\r\n    uint public ownersCount; // There's no way to iterate over mappings, thus we must keep counter\r\n\r\n    function createLand(string _name) external onlyOwner {\r\n        require(ownerLandCount[msg.sender] == 0);\r\n        _createLand(_name);\r\n        //uint randDna = _generateRandomDna(_name);\r\n        //randDna = randDna - randDna % 100;\r\n        //_createZombie(_name, randDna);\r\n    }\r\n    \r\n    function buy(uint landId) public returns (uint) {\r\n        require(landId >= 0 && landId <= 15); // Requires landId to be inbetween 0 - 15\r\n\r\n        landOwners[landId] = msg.sender; // Address of the person/smart contract that called this func\r\n\r\n        return landId;\r\n    }\r\n\r\n    function getLandOwners() public view returns (address[16]) {\r\n        return landOwners;\r\n    }  \r\n\r\n    function _createLand(string _name) internal {\r\n        lands.push(Land(_name));\r\n    }\r\n\r\n    \r\n}",
  "sourcePath": "C:\\Users\\heads\\Documents\\Research\\Dapps\\land\\contracts\\LandFactory.sol",
  "compiler": {
    "name": "solc",
    "version": "0.4.19+commit.c4cbbb05.Emscripten.clang"
  },
  "schemaVersion": "2.0.0",
  "updatedAt": "2018-04-09T02:07:02.695Z"
}