{
  "contractName": "LandBase",
  "abi": [
    {
      "constant": true,
      "inputs": [
        {
          "name": "",
          "type": "uint256"
        }
      ],
      "name": "landIndexToOwner",
      "outputs": [
        {
          "name": "",
          "type": "address"
        }
      ],
      "payable": false,
      "stateMutability": "view",
      "type": "function"
    },
    {
      "constant": true,
      "inputs": [
        {
          "name": "",
          "type": "uint256"
        }
      ],
      "name": "landIndexToApproved",
      "outputs": [
        {
          "name": "",
          "type": "address"
        }
      ],
      "payable": false,
      "stateMutability": "view",
      "type": "function"
    },
    {
      "constant": false,
      "inputs": [],
      "name": "unpause",
      "outputs": [],
      "payable": false,
      "stateMutability": "nonpayable",
      "type": "function"
    },
    {
      "constant": true,
      "inputs": [],
      "name": "paused",
      "outputs": [
        {
          "name": "",
          "type": "bool"
        }
      ],
      "payable": false,
      "stateMutability": "view",
      "type": "function"
    },
    {
      "constant": true,
      "inputs": [],
      "name": "secondsPerBlock",
      "outputs": [
        {
          "name": "",
          "type": "uint256"
        }
      ],
      "payable": false,
      "stateMutability": "view",
      "type": "function"
    },
    {
      "constant": false,
      "inputs": [],
      "name": "pause",
      "outputs": [],
      "payable": false,
      "stateMutability": "nonpayable",
      "type": "function"
    },
    {
      "constant": true,
      "inputs": [],
      "name": "owner",
      "outputs": [
        {
          "name": "",
          "type": "address"
        }
      ],
      "payable": false,
      "stateMutability": "view",
      "type": "function"
    },
    {
      "constant": true,
      "inputs": [
        {
          "name": "",
          "type": "uint256"
        }
      ],
      "name": "cooldowns",
      "outputs": [
        {
          "name": "",
          "type": "uint32"
        }
      ],
      "payable": false,
      "stateMutability": "view",
      "type": "function"
    },
    {
      "anonymous": false,
      "inputs": [
        {
          "indexed": false,
          "name": "owner",
          "type": "address"
        },
        {
          "indexed": false,
          "name": "name",
          "type": "string"
        },
        {
          "indexed": false,
          "name": "landId",
          "type": "uint256"
        },
        {
          "indexed": false,
          "name": "lat",
          "type": "uint256"
        },
        {
          "indexed": false,
          "name": "long",
          "type": "uint256"
        }
      ],
      "name": "Build",
      "type": "event"
    },
    {
      "anonymous": false,
      "inputs": [
        {
          "indexed": false,
          "name": "from",
          "type": "address"
        },
        {
          "indexed": false,
          "name": "to",
          "type": "address"
        },
        {
          "indexed": false,
          "name": "tokenId",
          "type": "uint256"
        }
      ],
      "name": "Transfer",
      "type": "event"
    },
    {
      "anonymous": false,
      "inputs": [
        {
          "indexed": false,
          "name": "newContract",
          "type": "address"
        }
      ],
      "name": "ContractUpgrade",
      "type": "event"
    },
    {
      "anonymous": false,
      "inputs": [
        {
          "indexed": false,
          "name": "error",
          "type": "string"
        }
      ],
      "name": "NotOwner",
      "type": "event"
    },
    {
      "anonymous": false,
      "inputs": [
        {
          "indexed": true,
          "name": "previousOwner",
          "type": "address"
        },
        {
          "indexed": true,
          "name": "newOwner",
          "type": "address"
        }
      ],
      "name": "OwnershipTransferred",
      "type": "event"
    },
    {
      "constant": false,
      "inputs": [
        {
          "name": "secs",
          "type": "uint256"
        }
      ],
      "name": "setSecondsPerBlock",
      "outputs": [],
      "payable": false,
      "stateMutability": "nonpayable",
      "type": "function"
    },
    {
      "constant": false,
      "inputs": [
        {
          "name": "_name",
          "type": "string"
        },
        {
          "name": "_lat",
          "type": "uint256"
        },
        {
          "name": "_long",
          "type": "uint256"
        }
      ],
      "name": "createLand",
      "outputs": [],
      "payable": false,
      "stateMutability": "nonpayable",
      "type": "function"
    }
  ],
  "bytecode": "0x606060405260008060146101000a81548160ff0219169083151502179055506101606040519081016040528061025863ffffffff1663ffffffff16815260200161070863ffffffff1663ffffffff168152602001610e1063ffffffff1663ffffffff168152602001611c2063ffffffff1663ffffffff16815260200161384063ffffffff1663ffffffff16815260200161708063ffffffff1663ffffffff16815260200161e10063ffffffff1663ffffffff1681526020016201518063ffffffff1663ffffffff1681526020016202a30063ffffffff1663ffffffff1681526020016205460063ffffffff1663ffffffff16815260200162093a8063ffffffff1663ffffffff16815250600190600b610119929190610164565b50600f600355336000806101000a81548173ffffffffffffffffffffffffffffffffffffffff021916908373ffffffffffffffffffffffffffffffffffffffff16021790555061023a565b82600b6007016008900481019282156101f65791602002820160005b838211156101c457835183826101000a81548163ffffffff021916908363ffffffff1602179055509260200192600401602081600301049283019260010302610180565b80156101f45782816101000a81549063ffffffff02191690556004016020816003010492830192600103026101c4565b505b5090506102039190610207565b5090565b61023791905b8082111561023357600081816101000a81549063ffffffff02191690555060010161020d565b5090565b90565b610e9e806102496000396000f3006060604052600436106100a4576000357c0100000000000000000000000000000000000000000000000000000000900463ffffffff16806325e5d997146100a9578063273d5ed41461010c5780632f1a04e51461014c5780633f4ba83a146101af5780635663896e146101c45780635c975abb146101e75780637a7d4937146102145780638456cb591461023d5780638da5cb5b146102525780639d6fac6f146102a7575b600080fd5b34156100b457600080fd5b6100ca60048080359060200190919050506102ea565b604051808273ffffffffffffffffffffffffffffffffffffffff1673ffffffffffffffffffffffffffffffffffffffff16815260200191505060405180910390f35b341561011757600080fd5b61014a6004808035906020019082018035906020019190919290803590602001909190803590602001909190505061031d565b005b341561015757600080fd5b61016d60048080359060200190919050506103bf565b604051808273ffffffffffffffffffffffffffffffffffffffff1673ffffffffffffffffffffffffffffffffffffffff16815260200191505060405180910390f35b34156101ba57600080fd5b6101c26103f2565b005b34156101cf57600080fd5b6101e56004808035906020019091905050610484565b005b34156101f257600080fd5b6101fa610528565b604051808215151515815260200191505060405180910390f35b341561021f57600080fd5b61022761053b565b6040518082815260200191505060405180910390f35b341561024857600080fd5b610250610541565b005b341561025d57600080fd5b6102656105d5565b604051808273ffffffffffffffffffffffffffffffffffffffff1673ffffffffffffffffffffffffffffffffffffffff16815260200191505060405180910390f35b34156102b257600080fd5b6102c860048080359060200190919050506105fa565b604051808263ffffffff1663ffffffff16815260200191505060405180910390f35b60056020528060005260406000206000915054906101000a900473ffffffffffffffffffffffffffffffffffffffff1681565b6000809054906101000a900473ffffffffffffffffffffffffffffffffffffffff1673ffffffffffffffffffffffffffffffffffffffff163373ffffffffffffffffffffffffffffffffffffffff1614151561037857600080fd5b6103b884848080601f0160208091040260200160405190810160405280939291908181526020018383808284378201915050505050508383336000610629565b5050505050565b60076020528060005260406000206000915054906101000a900473ffffffffffffffffffffffffffffffffffffffff1681565b6000809054906101000a900473ffffffffffffffffffffffffffffffffffffffff1673ffffffffffffffffffffffffffffffffffffffff163373ffffffffffffffffffffffffffffffffffffffff1614151561044d57600080fd5b600060149054906101000a900460ff16151561046857600080fd5b60008060146101000a81548160ff021916908315150217905550565b6000809054906101000a900473ffffffffffffffffffffffffffffffffffffffff1673ffffffffffffffffffffffffffffffffffffffff163373ffffffffffffffffffffffffffffffffffffffff161415156104df57600080fd5b60016000600b811015156104ef57fe5b600891828204019190066004029054906101000a900463ffffffff1663ffffffff168110151561051e57600080fd5b8060038190555050565b600060149054906101000a900460ff1681565b60035481565b6000809054906101000a900473ffffffffffffffffffffffffffffffffffffffff1673ffffffffffffffffffffffffffffffffffffffff163373ffffffffffffffffffffffffffffffffffffffff1614151561059c57600080fd5b600060149054906101000a900460ff161515156105b857600080fd5b6001600060146101000a81548160ff021916908315150217905550565b6000809054906101000a900473ffffffffffffffffffffffffffffffffffffffff1681565b600181600b8110151561060957fe5b60089182820401919006600402915054906101000a900463ffffffff1681565b6000610633610bde565b60008060009054906101000a900473ffffffffffffffffffffffffffffffffffffffff1673ffffffffffffffffffffffffffffffffffffffff163373ffffffffffffffffffffffffffffffffffffffff1614151561069057600080fd5b8663ffffffff16871415156106a457600080fd5b8561ffff16861415156106b657600080fd5b61012060405190810160405280898152602001600067ffffffffffffffff1681526020014267ffffffffffffffff1681526020018860030b81526020018760030b8152602001600061ffff1660030b8152602001600061ffff1681526020018560ff168152602001600160ff16815250915060016004805480600101828161073e9190610c58565b916000526020600020906002020160008590919091506000820151816000019080519060200190610770929190610c8a565b5060208201518160010160006101000a81548167ffffffffffffffff021916908367ffffffffffffffff16021790555060408201518160010160086101000a81548167ffffffffffffffff021916908367ffffffffffffffff16021790555060608201518160010160106101000a81548163ffffffff021916908360030b63ffffffff16021790555060808201518160010160146101000a81548163ffffffff021916908360030b63ffffffff16021790555060a08201518160010160186101000a81548163ffffffff021916908360030b63ffffffff16021790555060c082015181600101601c6101000a81548161ffff021916908361ffff16021790555060e082015181600101601e6101000a81548160ff021916908360ff16021790555061010082015181600101601f6101000a81548160ff021916908360ff16021790555050500390508063ffffffff16811415156108cc57600080fd5b7fccb1951c70602cddcc8cb24b3db852de3cdd7b091ddee71f191c3abfbf2dae3f858983856060015160030b866080015160030b604051808673ffffffffffffffffffffffffffffffffffffffff1673ffffffffffffffffffffffffffffffffffffffff16815260200180602001858152602001848152602001838152602001828103825286818151815260200191508051906020019080838360005b83811015610984578082015181840152602081019050610969565b50505050905090810190601f1680156109b15780820380516001836020036101000a031916815260200191505b50965050505050505060405180910390a16109ce600086836109dc565b809250505095945050505050565b600660008373ffffffffffffffffffffffffffffffffffffffff1673ffffffffffffffffffffffffffffffffffffffff16815260200190815260200160002060008154809291906001019190505550816005600083815260200190815260200160002060006101000a81548173ffffffffffffffffffffffffffffffffffffffff021916908373ffffffffffffffffffffffffffffffffffffffff160217905550600073ffffffffffffffffffffffffffffffffffffffff168373ffffffffffffffffffffffffffffffffffffffff16141515610b3a57600660008473ffffffffffffffffffffffffffffffffffffffff1673ffffffffffffffffffffffffffffffffffffffff16815260200190815260200160002060008154809291906001900391905055506007600082815260200190815260200160002060006101000a81549073ffffffffffffffffffffffffffffffffffffffff02191690555b7fddf252ad1be2c89b69c2b068fc378daa952ba7f163c4a11628f55a4df523b3ef838383604051808473ffffffffffffffffffffffffffffffffffffffff1673ffffffffffffffffffffffffffffffffffffffff1681526020018373ffffffffffffffffffffffffffffffffffffffff1673ffffffffffffffffffffffffffffffffffffffff168152602001828152602001935050505060405180910390a1505050565b61012060405190810160405280610bf3610d0a565b8152602001600067ffffffffffffffff168152602001600067ffffffffffffffff168152602001600060030b8152602001600060030b8152602001600060030b8152602001600061ffff168152602001600060ff168152602001600060ff1681525090565b815481835581811511610c8557600202816002028360005260206000209182019101610c849190610d1e565b5b505050565b828054600181600116156101000203166002900490600052602060002090601f016020900481019282601f10610ccb57805160ff1916838001178555610cf9565b82800160010185558215610cf9579182015b82811115610cf8578251825591602001919060010190610cdd565b5b509050610d069190610e05565b5090565b602060405190810160405280600081525090565b610e0291905b80821115610dfe5760008082016000610d3d9190610e2a565b6001820160006101000a81549067ffffffffffffffff02191690556001820160086101000a81549067ffffffffffffffff02191690556001820160106101000a81549063ffffffff02191690556001820160146101000a81549063ffffffff02191690556001820160186101000a81549063ffffffff021916905560018201601c6101000a81549061ffff021916905560018201601e6101000a81549060ff021916905560018201601f6101000a81549060ff021916905550600201610d24565b5090565b90565b610e2791905b80821115610e23576000816000905550600101610e0b565b5090565b90565b50805460018160011615610100020316600290046000825580601f10610e505750610e6f565b601f016020900490600052602060002090810190610e6e9190610e05565b5b505600a165627a7a723058202d813c43d7fbdff4a7912fca5e385bb44e5c6acfd38c5a93eda98006240551d40029",
  "source": "pragma solidity ^0.4.2;\r\n\r\nimport \"./landaccess.sol\";\r\n\r\n\r\n/// @title Base contract for CryptoHoosiers. Holds all common structs, events and base variables.\r\n/// @author Chris East\r\ncontract LandBase is LandAccess {\r\n    /*** EVENTS ***/\r\n\r\n    /// @dev The Build event is fired whenever a new property is generated. \r\n    event Build(address owner, string name, uint256 landId, uint256 lat, uint256 long);\r\n\r\n    /// @dev Transfer event as defined in current draft of ERC721. Emitted every time property\r\n    ///  ownership is assigned, including builds.\r\n    event Transfer(address from, address to, uint256 tokenId);\r\n\r\n    /*** DATA TYPES ***/\r\n    /// @dev The main Kitty struct. Every cat in CryptoKitties is represented by a copy\r\n    ///  of this structure, so great care was taken to ensure that it fits neatly into\r\n    ///  exactly two 256-bit words. Note that the order of the members in this structure\r\n    ///  is important because of the byte-packing rules used by Ethereum.\r\n    ///  Ref: http://solidity.readthedocs.io/en/develop/miscellaneous.html\r\n    struct Land {\r\n        // The id of the land, each is unquie to the property\r\n        string id;\r\n\r\n        uint64 cooldownEndBlock;    // The minimum timestamp after which this land can collect rent again. \r\n        uint64 buildTime;           // The timestamp from the block when this land was 'built'.\r\n        // lat and long position of the property, filled in with the main result from google api \r\n        int32 lat;\r\n        int32 long;\r\n\r\n        int32 value;                // The value of the property\r\n        uint16 rent;                // The rent value of the property\r\n        uint8 coolDownPeriod;       // The cooldown length for this property, used for collecting rent \r\n        uint8 level;                 // The level of the property \r\n\r\n    }\r\n\r\n    struct Kitty {\r\n        // The Kitty's genetic code is packed into these 256-bits, the format is\r\n        // sooper-sekret! A cat's genes never change.\r\n        uint256 genes;\r\n\r\n        // The timestamp from the block when this cat came into existence.\r\n        uint64 birthTime;\r\n\r\n        // The minimum timestamp after which this cat can engage in breeding\r\n        // activities again. This same timestamp is used for the pregnancy\r\n        // timer (for matrons) as well as the siring cooldown.\r\n        uint64 cooldownEndBlock;\r\n\r\n        // The ID of the parents of this kitty, set to 0 for gen0 cats.\r\n        // Note that using 32-bit unsigned integers limits us to a \"mere\"\r\n        // 4 billion cats. This number might seem small until you realize\r\n        // that Ethereum currently has a limit of about 500 million\r\n        // transactions per year! So, this definitely won't be a problem\r\n        // for several years (even as Ethereum learns to scale).\r\n        uint32 matronId;\r\n        uint32 sireId;\r\n\r\n        // Set to the ID of the sire cat for matrons that are pregnant,\r\n        // zero otherwise. A non-zero value here is how we know a cat\r\n        // is pregnant. Used to retrieve the genetic material for the new\r\n        // kitten when the birth transpires.\r\n        uint32 siringWithId;\r\n\r\n        // Set to the index in the cooldown array (see below) that represents\r\n        // the current cooldown duration for this Kitty. This starts at zero\r\n        // for gen0 cats, and is initialized to floor(generation/2) for others.\r\n        // Incremented by one for each successful breeding action, regardless\r\n        // of whether this cat is acting as matron or sire.\r\n        uint16 cooldownIndex;\r\n\r\n        // The \"generation number\" of this cat. Cats minted by the CK contract\r\n        // for sale are called \"gen0\" and have a generation number of 0. The\r\n        // generation number of all other cats is the larger of the two generation\r\n        // numbers of their parents, plus one.\r\n        // (i.e. max(matron.generation, sire.generation) + 1)\r\n        uint16 generation;\r\n    }\r\n\r\n    /*** CONSTANTS ***/\r\n    /// @dev A lookup table indicating the cooldown duration after any successful\r\n    ///  breeding action, called \"pregnancy time\" for matrons and \"siring cooldown\"\r\n    ///  for sires. Designed such that the cooldown roughly doubles each time a cat\r\n    ///  is bred, encouraging owners not to just keep breeding the same cat over\r\n    ///  and over again. Caps out at one week (a cat can breed an unbounded number\r\n    ///  of times, and the maximum cooldown is always seven days).\r\n    uint32[11] public cooldowns = [\r\n        uint32(10 minutes),\r\n        uint32(30 minutes),\r\n        uint32(1 hours),\r\n        uint32(2 hours),\r\n        uint32(4 hours),\r\n        uint32(8 hours),\r\n        uint32(16 hours),\r\n        uint32(1 days),\r\n        uint32(2 days),\r\n        uint32(4 days),\r\n        uint32(7 days)\r\n    ];\r\n\r\n    // An approximation of currently how many seconds are in between blocks.\r\n    uint256 public secondsPerBlock = 15;\r\n\r\n    /*** STORAGE ***/\r\n\r\n    /// @dev An array containing the Kitty struct for all Kitties in existence. The ID\r\n    ///  of each cat is actually an index into this array. Note that ID 0 is a negacat,\r\n    ///  the unKitty, the mythical beast that is the parent of all gen0 cats. A bizarre\r\n    ///  creature that is both matron and sire... to itself! Has an invalid genetic code.\r\n    ///  In other words, cat ID 0 is invalid... ;-)\r\n    Land[] properties;\r\n\r\n    /// @dev A mapping from land IDs to the address that owns them. \r\n    mapping (uint256 => address) public landIndexToOwner;\r\n\r\n    // @dev A mapping from owner address to count of tokens that address owns.\r\n    //  Used internally inside balanceOf() to resolve ownership count.\r\n    mapping (address => uint256) ownershipTokenCount;\r\n\r\n    /// @dev A mapping from KittyIDs to an address that has been approved to call\r\n    ///  transferFrom(). Each Kitty can only have one approved address for transfer\r\n    ///  at any time. A zero value means no approval is outstanding.\r\n    mapping (uint256 => address) public landIndexToApproved;\r\n\r\n    // Owner can fix how many seconds per blocks are currently observed.\r\n    function setSecondsPerBlock(uint256 secs) external onlyOwner {\r\n        require(secs < cooldowns[0]);\r\n        secondsPerBlock = secs;\r\n    }\r\n\r\n    /// @dev The address of the ClockAuction contract that handles sales of Land. This\r\n    ///  same contract handles both peer-to-peer sales\r\n    //SaleClockAuction public saleAuction;\r\n    /// @dev Assigns ownership of a specific property to an address.\r\n    function _transfer(address _from, address _to, uint256 _tokenId) internal {\r\n        // Since the number of properties is far lower than 2^32 we can't overflow this\r\n        ownershipTokenCount[_to]++;\r\n        // transfer ownership\r\n        landIndexToOwner[_tokenId] = _to;\r\n        // When creating new properties _from is 0x0, but we can't account that address.\r\n        if (_from != address(0)) {\r\n            // Decrease token count for seller\r\n            ownershipTokenCount[_from]--;\r\n            // clear any previously approved ownership exchange\r\n            delete landIndexToApproved[_tokenId];\r\n        }\r\n        // Emit the transfer event.\r\n        Transfer(_from, _to, _tokenId);\r\n    }\r\n\r\n    /// @dev An internal method that creates a new kitty and stores it. This\r\n    ///  method doesn't do any checking and should only be called when the\r\n    ///  input data is known to be valid. Will generate both a Birth event\r\n    ///  and a Transfer event.\r\n    /// _matronId The kitty ID of the matron of this cat (zero for gen0)\r\n    ///  _sireId The kitty ID of the sire of this cat (zero for gen0)\r\n    ///  _generation The generation number of this cat, must be computed by caller.\r\n    /// m _genes The kitty's genetic code.\r\n    /// ram _owner The inital owner of this cat, must be non-zero (except for the unKitty, ID 0)\r\n    // function _createKitty(\r\n    //     uint256 _matronId,\r\n    //     uint256 _sireId,\r\n    //     uint256 _generation,\r\n    //     uint256 _genes,\r\n    //     address _owner\r\n    // )\r\n    //     internal\r\n    //     returns (uint)\r\n    // {\r\n    //     // These requires are not strictly necessary, our calling code should make\r\n    //     // sure that these conditions are never broken. However! _createKitty() is already\r\n    //     // an expensive call (for storage), and it doesn't hurt to be especially careful\r\n    //     // to ensure our data structures are always valid.\r\n    //     require(_matronId == uint256(uint32(_matronId)));\r\n    //     require(_sireId == uint256(uint32(_sireId)));\r\n    //     require(_generation == uint256(uint16(_generation)));\r\n    //     // New kitty starts with the same cooldown as parent gen/2\r\n    //     uint16 cooldownIndex = uint16(_generation / 2);\r\n    //     if (cooldownIndex > 13) {\r\n    //         cooldownIndex = 13;\r\n    //     }\r\n    //     Kitty memory _kitty = Kitty({\r\n    //         genes: _genes,\r\n    //         birthTime: uint64(now),\r\n    //         cooldownEndBlock: 0,\r\n    //         matronId: uint32(_matronId),\r\n    //         sireId: uint32(_sireId),\r\n    //         siringWithId: 0,\r\n    //         cooldownIndex: cooldownIndex,\r\n    //         generation: uint16(_generation)\r\n    //     });\r\n    //     //uint256 newKittenId = kitties.push(_kitty) - 1;\r\n    //     // It's probably never going to happen, 4 billion cats is A LOT, but\r\n    //     // let's just be 100% sure we never let this happen.\r\n    //     //equire(newKittenId == uint256(uint32(newKittenId)));\r\n    //     // emit the birth event \r\n    //     // Birth(\r\n    //     //     _owner,\r\n    //     //     newKittenId,\r\n    //     //     uint256(_kitty.matronId),\r\n    //     //     uint256(_kitty.sireId),\r\n    //     //     _kitty.genes\r\n    //     // );\r\n    //     // // This will assign ownership, and also emit the Transfer event as\r\n    //     // // per ERC721 draft\r\n    //     // _transfer(0, _owner, newKittenId);\r\n    //     // return newKittenId;\r\n    // }\r\n    /// @dev An internal method that creates a new kitty and stores it. This\r\n    ///  method doesn't do any checking and should only be called when the\r\n    ///  input data is known to be valid. Will generate both a Birth event\r\n    ///  and a Transfer event.\r\n    /// param _matronId The kitty ID of the matron of this cat (zero for gen0)\r\n    /// param _sireId The kitty ID of the sire of this cat (zero for gen0)\r\n    /// param _generation The generation number of this cat, must be computed by caller.\r\n    /// param _genes The kitty's genetic code.\r\n    /// param _owner The inital owner of this cat, must be non-zero (except for the unKitty, ID 0)\r\n    function _createLand(\r\n        string _name,\r\n        uint256 _lat,\r\n        uint256 _long,\r\n        address _owner,\r\n        uint256 _coolDownPeriod\r\n    )\r\n        internal onlyOwner\r\n        returns (uint)\r\n    {\r\n        // These requires are not strictly necessary, our calling code should make\r\n        // sure that these conditions are never broken. However! _createKitty() is already\r\n        // an expensive call (for storage), and it doesn't hurt to be especially careful\r\n        // to ensure our data structures are always valid.\r\n        require(_lat == uint256(uint32(_lat)));\r\n        require(_long == uint256(uint16(_long)));\r\n        \r\n        //uint16 cooldownIndex = uint16(_generation / 2);\r\n\r\n        // if (cooldownIndex > 13) {\r\n        //     cooldownIndex = 13;\r\n        // }\r\n        // The id of the land, each is unquie to the property\r\n        //string id;\r\n        // uint64 cooldownEndBlock;    // The minimum timestamp after which this land can collect rent again. \r\n        // uint64 birthTime;           // The timestamp from the block when this land was 'built'.\r\n        // lat and long position of the property, filled in with the main result from google api \r\n        // int32 lat;\r\n        // int32 long;\r\n        // int32 value;                // The value of the property\r\n        // uint16 rent;                // The rent value of the property\r\n        // uint8 coolDownPeriod;       // The cooldown length for this property, used for collecting rent \r\n        // uint8 level;                 // The level of the property \r\n        Land memory _land = Land({\r\n            id: string(_name),\r\n            buildTime: uint64(now),\r\n            cooldownEndBlock: uint64(0),\r\n            lat: int32(_lat),\r\n            long: int32(_long),\r\n            value: uint16(0),\r\n            rent: uint16(0),\r\n            coolDownPeriod: uint8(_coolDownPeriod),\r\n            level: uint8(1)\r\n        });\r\n        uint256 newLandId = properties.push(_land) - 1;\r\n\r\n        // It's probably never going to happen, 4 billion cats is A LOT, but\r\n        // let's just be 100% sure we never let this happen.\r\n        require(newLandId == uint256(uint32(newLandId)));\r\n\r\n        // emit the birth event ~ event Build(address owner, string name, uint256 landId, uint256 lat, uint256 long);\r\n        Build(_owner, _name, newLandId, uint256(_land.lat), uint256(_land.long));\r\n\r\n        // This will assign ownership, and also emit the Transfer event as\r\n        // per ERC721 draft\r\n        _transfer(0, _owner, newLandId);\r\n\r\n        return newLandId;\r\n    }\r\n\r\n    function createLand(string _name, uint256 _lat, uint256 _long) external onlyOwner {\r\n        //require() - Require the hash of this is not in the array already\r\n        _createLand(_name, _lat, _long, msg.sender, 0);\r\n    }\r\n\r\n    \r\n}",
  "sourcePath": "C:\\Users\\heads\\Documents\\Research\\Dapps\\land\\contracts\\LandBase.sol",
  "compiler": {
    "name": "solc",
    "version": "0.4.19+commit.c4cbbb05.Emscripten.clang"
  },
  "schemaVersion": "2.0.0",
  "updatedAt": "2018-04-10T05:13:50.931Z"
}