{
  "contractName": "LandBase",
  "abi": [
    {
      "constant": false,
      "inputs": [
        {
          "name": "_newOwner",
          "type": "address"
        }
      ],
      "name": "setOwner",
      "outputs": [],
      "payable": false,
      "stateMutability": "nonpayable",
      "type": "function"
    },
    {
      "constant": true,
      "inputs": [
        {
          "name": "",
          "type": "uint256"
        }
      ],
      "name": "landIndexToOwner",
      "outputs": [
        {
          "name": "",
          "type": "address"
        }
      ],
      "payable": false,
      "stateMutability": "view",
      "type": "function"
    },
    {
      "constant": true,
      "inputs": [
        {
          "name": "",
          "type": "uint256"
        }
      ],
      "name": "landIndexToApproved",
      "outputs": [
        {
          "name": "",
          "type": "address"
        }
      ],
      "payable": false,
      "stateMutability": "view",
      "type": "function"
    },
    {
      "constant": false,
      "inputs": [],
      "name": "unpause",
      "outputs": [],
      "payable": false,
      "stateMutability": "nonpayable",
      "type": "function"
    },
    {
      "constant": true,
      "inputs": [],
      "name": "paused",
      "outputs": [
        {
          "name": "",
          "type": "bool"
        }
      ],
      "payable": false,
      "stateMutability": "view",
      "type": "function"
    },
    {
      "constant": true,
      "inputs": [],
      "name": "secondsPerBlock",
      "outputs": [
        {
          "name": "",
          "type": "uint256"
        }
      ],
      "payable": false,
      "stateMutability": "view",
      "type": "function"
    },
    {
      "constant": false,
      "inputs": [],
      "name": "pause",
      "outputs": [],
      "payable": false,
      "stateMutability": "nonpayable",
      "type": "function"
    },
    {
      "constant": true,
      "inputs": [],
      "name": "owner",
      "outputs": [
        {
          "name": "",
          "type": "address"
        }
      ],
      "payable": false,
      "stateMutability": "view",
      "type": "function"
    },
    {
      "constant": true,
      "inputs": [
        {
          "name": "",
          "type": "uint256"
        }
      ],
      "name": "cooldowns",
      "outputs": [
        {
          "name": "",
          "type": "uint32"
        }
      ],
      "payable": false,
      "stateMutability": "view",
      "type": "function"
    },
    {
      "constant": true,
      "inputs": [
        {
          "name": "",
          "type": "uint256"
        }
      ],
      "name": "properties",
      "outputs": [
        {
          "name": "id",
          "type": "uint256"
        },
        {
          "name": "name",
          "type": "string"
        },
        {
          "name": "buildTime",
          "type": "uint64"
        },
        {
          "name": "lat",
          "type": "int64"
        },
        {
          "name": "long",
          "type": "int64"
        }
      ],
      "payable": false,
      "stateMutability": "view",
      "type": "function"
    },
    {
      "anonymous": false,
      "inputs": [
        {
          "indexed": false,
          "name": "owner",
          "type": "address"
        },
        {
          "indexed": false,
          "name": "name",
          "type": "string"
        },
        {
          "indexed": false,
          "name": "landId",
          "type": "uint256"
        },
        {
          "indexed": false,
          "name": "lat",
          "type": "int256"
        },
        {
          "indexed": false,
          "name": "long",
          "type": "int256"
        }
      ],
      "name": "Build",
      "type": "event"
    },
    {
      "anonymous": false,
      "inputs": [
        {
          "indexed": false,
          "name": "from",
          "type": "address"
        },
        {
          "indexed": false,
          "name": "to",
          "type": "address"
        },
        {
          "indexed": false,
          "name": "tokenId",
          "type": "uint256"
        }
      ],
      "name": "Transfer",
      "type": "event"
    },
    {
      "anonymous": false,
      "inputs": [
        {
          "indexed": false,
          "name": "newContract",
          "type": "address"
        }
      ],
      "name": "ContractUpgrade",
      "type": "event"
    },
    {
      "anonymous": false,
      "inputs": [
        {
          "indexed": false,
          "name": "error",
          "type": "string"
        }
      ],
      "name": "NotOwner",
      "type": "event"
    },
    {
      "anonymous": false,
      "inputs": [
        {
          "indexed": true,
          "name": "previousOwner",
          "type": "address"
        },
        {
          "indexed": true,
          "name": "newOwner",
          "type": "address"
        }
      ],
      "name": "OwnershipTransferred",
      "type": "event"
    },
    {
      "constant": false,
      "inputs": [
        {
          "name": "secs",
          "type": "uint256"
        }
      ],
      "name": "setSecondsPerBlock",
      "outputs": [],
      "payable": false,
      "stateMutability": "nonpayable",
      "type": "function"
    },
    {
      "constant": false,
      "inputs": [
        {
          "name": "_name",
          "type": "string"
        },
        {
          "name": "_lat",
          "type": "int256"
        },
        {
          "name": "_long",
          "type": "int256"
        }
      ],
      "name": "createLand",
      "outputs": [],
      "payable": false,
      "stateMutability": "nonpayable",
      "type": "function"
    }
  ],
  "bytecode": "0x606060405260008060146101000a81548160ff0219169083151502179055506101606040519081016040528061025863ffffffff1663ffffffff16815260200161070863ffffffff1663ffffffff168152602001610e1063ffffffff1663ffffffff168152602001611c2063ffffffff1663ffffffff16815260200161384063ffffffff1663ffffffff16815260200161708063ffffffff1663ffffffff16815260200161e10063ffffffff1663ffffffff1681526020016201518063ffffffff1663ffffffff1681526020016202a30063ffffffff1663ffffffff1681526020016205460063ffffffff1663ffffffff16815260200162093a8063ffffffff1663ffffffff16815250600190600b610119929190610164565b50600f600355336000806101000a81548173ffffffffffffffffffffffffffffffffffffffff021916908373ffffffffffffffffffffffffffffffffffffffff16021790555061023a565b82600b6007016008900481019282156101f65791602002820160005b838211156101c457835183826101000a81548163ffffffff021916908363ffffffff1602179055509260200192600401602081600301049283019260010302610180565b80156101f45782816101000a81549063ffffffff02191690556004016020816003010492830192600103026101c4565b505b5090506102039190610207565b5090565b61023791905b8082111561023357600081816101000a81549063ffffffff02191690555060010161020d565b5090565b90565b611020806102496000396000f3006060604052600436106100ba576000357c0100000000000000000000000000000000000000000000000000000000900463ffffffff16806313af4035146100bf57806325e5d997146100f85780632f1a04e51461015b5780633f4ba83a146101be5780635663896e146101d35780635c975abb146101f65780636cc6f9bb146102235780637a7d4937146102635780638456cb591461028c5780638da5cb5b146102a15780639d6fac6f146102f6578063f7b1080814610339575b600080fd5b34156100ca57600080fd5b6100f6600480803573ffffffffffffffffffffffffffffffffffffffff1690602001909190505061042e565b005b341561010357600080fd5b6101196004808035906020019091905050610508565b604051808273ffffffffffffffffffffffffffffffffffffffff1673ffffffffffffffffffffffffffffffffffffffff16815260200191505060405180910390f35b341561016657600080fd5b61017c600480803590602001909190505061053b565b604051808273ffffffffffffffffffffffffffffffffffffffff1673ffffffffffffffffffffffffffffffffffffffff16815260200191505060405180910390f35b34156101c957600080fd5b6101d161056e565b005b34156101de57600080fd5b6101f46004808035906020019091905050610600565b005b341561020157600080fd5b6102096106a4565b604051808215151515815260200191505060405180910390f35b341561022e57600080fd5b610261600480803590602001908201803590602001919091929080359060200190919080359060200190919050506106b7565b005b341561026e57600080fd5b610276610759565b6040518082815260200191505060405180910390f35b341561029757600080fd5b61029f61075f565b005b34156102ac57600080fd5b6102b46107f3565b604051808273ffffffffffffffffffffffffffffffffffffffff1673ffffffffffffffffffffffffffffffffffffffff16815260200191505060405180910390f35b341561030157600080fd5b6103176004808035906020019091905050610818565b604051808263ffffffff1663ffffffff16815260200191505060405180910390f35b341561034457600080fd5b61035a6004808035906020019091905050610847565b60405180868152602001806020018567ffffffffffffffff1667ffffffffffffffff1681526020018460070b60070b81526020018360070b60070b815260200182810382528681815460018160011615610100020316600290048152602001915080546001816001161561010002031660029004801561041b5780601f106103f05761010080835404028352916020019161041b565b820191906000526020600020905b8154815290600101906020018083116103fe57829003601f168201915b5050965050505050505060405180910390f35b6000809054906101000a900473ffffffffffffffffffffffffffffffffffffffff1673ffffffffffffffffffffffffffffffffffffffff163373ffffffffffffffffffffffffffffffffffffffff1614151561048957600080fd5b600073ffffffffffffffffffffffffffffffffffffffff168173ffffffffffffffffffffffffffffffffffffffff16141515156104c557600080fd5b806000806101000a81548173ffffffffffffffffffffffffffffffffffffffff021916908373ffffffffffffffffffffffffffffffffffffffff16021790555050565b60066020528060005260406000206000915054906101000a900473ffffffffffffffffffffffffffffffffffffffff1681565b60086020528060005260406000206000915054906101000a900473ffffffffffffffffffffffffffffffffffffffff1681565b6000809054906101000a900473ffffffffffffffffffffffffffffffffffffffff1673ffffffffffffffffffffffffffffffffffffffff163373ffffffffffffffffffffffffffffffffffffffff161415156105c957600080fd5b600060149054906101000a900460ff1615156105e457600080fd5b60008060146101000a81548160ff021916908315150217905550565b6000809054906101000a900473ffffffffffffffffffffffffffffffffffffffff1673ffffffffffffffffffffffffffffffffffffffff163373ffffffffffffffffffffffffffffffffffffffff1614151561065b57600080fd5b60016000600b8110151561066b57fe5b600891828204019190066004029054906101000a900463ffffffff1663ffffffff168110151561069a57600080fd5b8060038190555050565b600060149054906101000a900460ff1681565b6000809054906101000a900473ffffffffffffffffffffffffffffffffffffffff1673ffffffffffffffffffffffffffffffffffffffff163373ffffffffffffffffffffffffffffffffffffffff1614151561071257600080fd5b61075284848080601f01602080910402602001604051908101604052809392919081815260200183838082843782019150505050505083833360006108b9565b5050505050565b60035481565b6000809054906101000a900473ffffffffffffffffffffffffffffffffffffffff1673ffffffffffffffffffffffffffffffffffffffff163373ffffffffffffffffffffffffffffffffffffffff161415156107ba57600080fd5b600060149054906101000a900460ff161515156107d657600080fd5b6001600060146101000a81548160ff021916908315150217905550565b6000809054906101000a900473ffffffffffffffffffffffffffffffffffffffff1681565b600181600b8110151561082757fe5b60089182820401919006600402915054906101000a900463ffffffff1681565b60048181548110151561085657fe5b906000526020600020906003020160009150905080600001549080600101908060020160009054906101000a900467ffffffffffffffff16908060020160089054906101000a900460070b908060020160109054906101000a900460070b905085565b60006108c3610df3565b60008060009054906101000a900473ffffffffffffffffffffffffffffffffffffffff1673ffffffffffffffffffffffffffffffffffffffff163373ffffffffffffffffffffffffffffffffffffffff1614151561092057600080fd5b8660070b8714151561093157600080fd5b8560070b8614151561094257600080fd5b60a060405190810160405280896040518082805190602001908083835b602083101515610984578051825260208201915060208101905060208303925061095f565b6001836020036101000a03801982511681845116808217855250505050505090500191505060405180910390206001900481526020018981526020014267ffffffffffffffff1681526020018860070b81526020018760070b81525091506001600480548060010182816109f89190610e39565b91600052602060002090600302016000859091909150600082015181600001556020820151816001019080519060200190610a34929190610e6b565b5060408201518160020160006101000a81548167ffffffffffffffff021916908367ffffffffffffffff16021790555060608201518160020160086101000a81548167ffffffffffffffff021916908360070b67ffffffffffffffff16021790555060808201518160020160106101000a81548167ffffffffffffffff021916908360070b67ffffffffffffffff16021790555050500390508063ffffffff1681141515610ae157600080fd5b7f394d65f1c627699b20bfdb68ddf22d5234242b196a600db3aaf07ba6ce75620685898385606001518660800151604051808673ffffffffffffffffffffffffffffffffffffffff1673ffffffffffffffffffffffffffffffffffffffff168152602001806020018581526020018460070b81526020018360070b8152602001828103825286818151815260200191508051906020019080838360005b83811015610b99578082015181840152602081019050610b7e565b50505050905090810190601f168015610bc65780820380516001836020036101000a031916815260200191505b50965050505050505060405180910390a1610be360008683610bf1565b809250505095945050505050565b600760008373ffffffffffffffffffffffffffffffffffffffff1673ffffffffffffffffffffffffffffffffffffffff16815260200190815260200160002060008154809291906001019190505550816006600083815260200190815260200160002060006101000a81548173ffffffffffffffffffffffffffffffffffffffff021916908373ffffffffffffffffffffffffffffffffffffffff160217905550600073ffffffffffffffffffffffffffffffffffffffff168373ffffffffffffffffffffffffffffffffffffffff16141515610d4f57600760008473ffffffffffffffffffffffffffffffffffffffff1673ffffffffffffffffffffffffffffffffffffffff16815260200190815260200160002060008154809291906001900391905055506008600082815260200190815260200160002060006101000a81549073ffffffffffffffffffffffffffffffffffffffff02191690555b7fddf252ad1be2c89b69c2b068fc378daa952ba7f163c4a11628f55a4df523b3ef838383604051808473ffffffffffffffffffffffffffffffffffffffff1673ffffffffffffffffffffffffffffffffffffffff1681526020018373ffffffffffffffffffffffffffffffffffffffff1673ffffffffffffffffffffffffffffffffffffffff168152602001828152602001935050505060405180910390a1505050565b60a06040519081016040528060008152602001610e0e610eeb565b8152602001600067ffffffffffffffff168152602001600060070b8152602001600060070b81525090565b815481835581811511610e6657600302816003028360005260206000209182019101610e659190610eff565b5b505050565b828054600181600116156101000203166002900490600052602060002090601f016020900481019282601f10610eac57805160ff1916838001178555610eda565b82800160010185558215610eda579182015b82811115610ed9578251825591602001919060010190610ebe565b5b509050610ee79190610f87565b5090565b602060405190810160405280600081525090565b610f8491905b80821115610f8057600080820160009055600182016000610f269190610fac565b6002820160006101000a81549067ffffffffffffffff02191690556002820160086101000a81549067ffffffffffffffff02191690556002820160106101000a81549067ffffffffffffffff021916905550600301610f05565b5090565b90565b610fa991905b80821115610fa5576000816000905550600101610f8d565b5090565b90565b50805460018160011615610100020316600290046000825580601f10610fd25750610ff1565b601f016020900490600052602060002090810190610ff09190610f87565b5b505600a165627a7a7230582020b3354c4778ca047b29681a0ef251ca4e135f3e516fb2978a885ab64b0e17bf0029",
  "source": "pragma solidity ^0.4.2;\r\n\r\nimport \"./landaccess.sol\";\r\n\r\n\r\n/// @title Base contract for CryptoHoosiers. Holds all common structs, events and base variables.\r\n/// @author Chris East\r\ncontract LandBase is LandAccess {\r\n    /*** EVENTS ***/\r\n\r\n    /// @dev The Build event is fired whenever a new property is generated. \r\n    event Build(address owner, string name, uint256 landId, int256 lat, int256 long);\r\n\r\n    /// @dev Transfer event as defined in current draft of ERC721. Emitted every time property\r\n    ///  ownership is assigned, including builds.\r\n    event Transfer(address from, address to, uint256 tokenId);\r\n\r\n    /*** DATA TYPES ***/\r\n    /// @dev The main Kitty struct. Every cat in CryptoKitties is represented by a copy\r\n    ///  of this structure, so great care was taken to ensure that it fits neatly into\r\n    ///  exactly two 256-bit words. Note that the order of the members in this structure\r\n    ///  is important because of the byte-packing rules used by Ethereum.\r\n    ///  Ref: http://solidity.readthedocs.io/en/develop/miscellaneous.html\r\n    struct Land {\r\n        // The id of the land, each is unquie to the property\r\n        uint256 id;\r\n        string name;\r\n        //uint64 cooldownEndBlock;    // The minimum timestamp after which this land can collect rent again. \r\n        uint64 buildTime;           // The timestamp from the block when this land was 'built'.\r\n        // lat and long position of the property, filled in with the main result from google api \r\n        int64 lat;\r\n        int64 long;\r\n\r\n        //int32 value;                // The value of the property\r\n        //uint16 rent;                // The rent value of the property\r\n        //uint8 coolDownPeriod;       // The cooldown length for this property, used for collecting rent \r\n        //uint8 level;                 // The level of the property \r\n\r\n    }\r\n\r\n    struct Kitty {\r\n        // The Kitty's genetic code is packed into these 256-bits, the format is\r\n        // sooper-sekret! A cat's genes never change.\r\n        uint256 genes;\r\n\r\n        // The timestamp from the block when this cat came into existence.\r\n        uint64 birthTime;\r\n\r\n        // The minimum timestamp after which this cat can engage in breeding\r\n        // activities again. This same timestamp is used for the pregnancy\r\n        // timer (for matrons) as well as the siring cooldown.\r\n        uint64 cooldownEndBlock;\r\n\r\n        // The ID of the parents of this kitty, set to 0 for gen0 cats.\r\n        // Note that using 32-bit unsigned integers limits us to a \"mere\"\r\n        // 4 billion cats. This number might seem small until you realize\r\n        // that Ethereum currently has a limit of about 500 million\r\n        // transactions per year! So, this definitely won't be a problem\r\n        // for several years (even as Ethereum learns to scale).\r\n        uint32 matronId;\r\n        uint32 sireId;\r\n\r\n        // Set to the ID of the sire cat for matrons that are pregnant,\r\n        // zero otherwise. A non-zero value here is how we know a cat\r\n        // is pregnant. Used to retrieve the genetic material for the new\r\n        // kitten when the birth transpires.\r\n        uint32 siringWithId;\r\n\r\n        // Set to the index in the cooldown array (see below) that represents\r\n        // the current cooldown duration for this Kitty. This starts at zero\r\n        // for gen0 cats, and is initialized to floor(generation/2) for others.\r\n        // Incremented by one for each successful breeding action, regardless\r\n        // of whether this cat is acting as matron or sire.\r\n        uint16 cooldownIndex;\r\n\r\n        // The \"generation number\" of this cat. Cats minted by the CK contract\r\n        // for sale are called \"gen0\" and have a generation number of 0. The\r\n        // generation number of all other cats is the larger of the two generation\r\n        // numbers of their parents, plus one.\r\n        // (i.e. max(matron.generation, sire.generation) + 1)\r\n        uint16 generation;\r\n    }\r\n\r\n    /*** CONSTANTS ***/\r\n    /// @dev A lookup table indicating the cooldown duration after any successful\r\n    ///  breeding action, called \"pregnancy time\" for matrons and \"siring cooldown\"\r\n    ///  for sires. Designed such that the cooldown roughly doubles each time a cat\r\n    ///  is bred, encouraging owners not to just keep breeding the same cat over\r\n    ///  and over again. Caps out at one week (a cat can breed an unbounded number\r\n    ///  of times, and the maximum cooldown is always seven days).\r\n    uint32[11] public cooldowns = [\r\n        uint32(10 minutes),\r\n        uint32(30 minutes),\r\n        uint32(1 hours),\r\n        uint32(2 hours),\r\n        uint32(4 hours),\r\n        uint32(8 hours),\r\n        uint32(16 hours),\r\n        uint32(1 days),\r\n        uint32(2 days),\r\n        uint32(4 days),\r\n        uint32(7 days)\r\n    ];\r\n\r\n    // An approximation of currently how many seconds are in between blocks.\r\n    uint256 public secondsPerBlock = 15;\r\n\r\n    /*** STORAGE ***/\r\n\r\n    /// @dev An array containing the Kitty struct for all Kitties in existence. The ID\r\n    ///  of each cat is actually an index into this array. Note that ID 0 is a negacat,\r\n    ///  the unKitty, the mythical beast that is the parent of all gen0 cats. A bizarre\r\n    ///  creature that is both matron and sire... to itself! Has an invalid genetic code.\r\n    ///  In other words, cat ID 0 is invalid... ;-)\r\n    Land[] public properties;\r\n\r\n    uint256[] built; \r\n\r\n    /// @dev A mapping from land IDs to the address that owns them. \r\n    mapping (uint256 => address) public landIndexToOwner;\r\n\r\n    // @dev A mapping from owner address to count of tokens that address owns.\r\n    //  Used internally inside balanceOf() to resolve ownership count.\r\n    mapping (address => uint256) ownershipTokenCount;\r\n\r\n    /// @dev A mapping from KittyIDs to an address that has been approved to call\r\n    ///  transferFrom(). Each Kitty can only have one approved address for transfer\r\n    ///  at any time. A zero value means no approval is outstanding.\r\n    mapping (uint256 => address) public landIndexToApproved;\r\n\r\n    modifier notBuilt(string _name) {\r\n        require(built[uint(keccak256(_name))] == 0);\r\n        _;\r\n    }\r\n\r\n    // Owner can fix how many seconds per blocks are currently observed.\r\n    function setSecondsPerBlock(uint256 secs) external onlyOwner {\r\n        require(secs < cooldowns[0]);\r\n        secondsPerBlock = secs;\r\n    }\r\n\r\n    /// @dev The address of the ClockAuction contract that handles sales of Land. This\r\n    ///  same contract handles both peer-to-peer sales\r\n    //SaleClockAuction public saleAuction;\r\n    /// @dev Assigns ownership of a specific property to an address.\r\n    function _transfer(address _from, address _to, uint256 _tokenId) internal {\r\n        // Since the number of properties is far lower than 2^32 we can't overflow this\r\n        ownershipTokenCount[_to]++;\r\n        // transfer ownership\r\n        landIndexToOwner[_tokenId] = _to;\r\n        // When creating new properties _from is 0x0, but we can't account that address.\r\n        if (_from != address(0)) {\r\n            // Decrease token count for seller\r\n            ownershipTokenCount[_from]--;\r\n            // clear any previously approved ownership exchange\r\n            delete landIndexToApproved[_tokenId];\r\n        }\r\n        // Emit the transfer event.\r\n        Transfer(_from, _to, _tokenId);\r\n    }\r\n\r\n    /// @dev An internal method that creates a new kitty and stores it. This\r\n    ///  method doesn't do any checking and should only be called when the\r\n    ///  input data is known to be valid. Will generate both a Birth event\r\n    ///  and a Transfer event.\r\n    /// _matronId The kitty ID of the matron of this cat (zero for gen0)\r\n    ///  _sireId The kitty ID of the sire of this cat (zero for gen0)\r\n    ///  _generation The generation number of this cat, must be computed by caller.\r\n    /// m _genes The kitty's genetic code.\r\n    /// ram _owner The inital owner of this cat, must be non-zero (except for the unKitty, ID 0)\r\n    // function _createKitty(\r\n    //     uint256 _matronId,\r\n    //     uint256 _sireId,\r\n    //     uint256 _generation,\r\n    //     uint256 _genes,\r\n    //     address _owner\r\n    // )\r\n    //     internal\r\n    //     returns (uint)\r\n    // {\r\n    //     // These requires are not strictly necessary, our calling code should make\r\n    //     // sure that these conditions are never broken. However! _createKitty() is already\r\n    //     // an expensive call (for storage), and it doesn't hurt to be especially careful\r\n    //     // to ensure our data structures are always valid.\r\n    //     require(_matronId == uint256(uint32(_matronId)));\r\n    //     require(_sireId == uint256(uint32(_sireId)));\r\n    //     require(_generation == uint256(uint16(_generation)));\r\n    //     // New kitty starts with the same cooldown as parent gen/2\r\n    //     uint16 cooldownIndex = uint16(_generation / 2);\r\n    //     if (cooldownIndex > 13) {\r\n    //         cooldownIndex = 13;\r\n    //     }\r\n    //     Kitty memory _kitty = Kitty({\r\n    //         genes: _genes,\r\n    //         birthTime: uint64(now),\r\n    //         cooldownEndBlock: 0,\r\n    //         matronId: uint32(_matronId),\r\n    //         sireId: uint32(_sireId),\r\n    //         siringWithId: 0,\r\n    //         cooldownIndex: cooldownIndex,\r\n    //         generation: uint16(_generation)\r\n    //     });\r\n    //     //uint256 newKittenId = kitties.push(_kitty) - 1;\r\n    //     // It's probably never going to happen, 4 billion cats is A LOT, but\r\n    //     // let's just be 100% sure we never let this happen.\r\n    //     //equire(newKittenId == uint256(uint32(newKittenId)));\r\n    //     // emit the birth event \r\n    //     // Birth(\r\n    //     //     _owner,\r\n    //     //     newKittenId,\r\n    //     //     uint256(_kitty.matronId),\r\n    //     //     uint256(_kitty.sireId),\r\n    //     //     _kitty.genes\r\n    //     // );\r\n    //     // // This will assign ownership, and also emit the Transfer event as\r\n    //     // // per ERC721 draft\r\n    //     // _transfer(0, _owner, newKittenId);\r\n    //     // return newKittenId;\r\n    // }\r\n    /// @dev An internal method that creates a new kitty and stores it. This\r\n    ///  method doesn't do any checking and should only be called when the\r\n    ///  input data is known to be valid. Will generate both a Birth event\r\n    ///  and a Transfer event.\r\n    /// param _matronId The kitty ID of the matron of this cat (zero for gen0)\r\n    /// param _sireId The kitty ID of the sire of this cat (zero for gen0)\r\n    /// param _generation The generation number of this cat, must be computed by caller.\r\n    /// param _genes The kitty's genetic code.\r\n    /// param _owner The inital owner of this cat, must be non-zero (except for the unKitty, ID 0)\r\n    function _createLand(\r\n        string _name,\r\n        int256 _lat,\r\n        int256 _long,\r\n        address _owner,\r\n        uint256 _coolDownPeriod\r\n    )\r\n        internal onlyOwner\r\n        returns (uint)\r\n    {\r\n        // These requires are not strictly necessary, our calling code should make\r\n        // sure that these conditions are never broken. However! _createKitty() is already\r\n        // an expensive call (for storage), and it doesn't hurt to be especially careful\r\n        // to ensure our data structures are always valid.\r\n        require(_lat == int256(int64(_lat)));\r\n        require(_long == int256(int64(_long)));\r\n        \r\n        //uint16 cooldownIndex = uint16(_generation / 2);\r\n\r\n        // if (cooldownIndex > 13) {\r\n        //     cooldownIndex = 13;\r\n        // }\r\n        // The id of the land, each is unquie to the property\r\n        \r\n        Land memory _land = Land({\r\n            id: uint(keccak256(_name)),\r\n            name: string(_name),\r\n            buildTime: uint64(now),\r\n            //cooldownEndBlock: uint64(0),\r\n            lat: int64(_lat),\r\n            long: int64(_long)//,\r\n            //value: uint16(0),\r\n            //rent: uint16(0),\r\n            //coolDownPeriod: uint8(_coolDownPeriod),\r\n            //level: uint8(1)\r\n        });\r\n        uint256 newLandId = properties.push(_land) - 1;\r\n\r\n        // It's probably never going to happen, 4 billion cats is A LOT, but\r\n        // let's just be 100% sure we never let this happen.\r\n        require(newLandId == uint256(uint32(newLandId)));\r\n\r\n        // emit the birth event ~ event Build(address owner, string name, uint256 landId, uint256 lat, uint256 long);\r\n        Build(_owner, _name, newLandId, _land.lat, _land.long);\r\n\r\n\r\n\r\n        // This will assign ownership, and also emit the Transfer event as\r\n        // per ERC721 draft\r\n        _transfer(0, _owner, newLandId);\r\n\r\n        return newLandId;\r\n    }\r\n\r\n    function createLand(string _name, int256 _lat, int256 _long) external onlyOwner {\r\n        //require() - Require the hash of this is not in the array already\r\n        _createLand(_name, _lat, _long, msg.sender, 0);\r\n    }\r\n\r\n    \r\n}",
  "sourcePath": "C:\\Users\\heads\\Documents\\Research\\Dapps\\land\\contracts\\LandBase.sol",
  "compiler": {
    "name": "solc",
    "version": "0.4.19+commit.c4cbbb05.Emscripten.clang"
  },
  "schemaVersion": "2.0.0",
  "updatedAt": "2018-04-11T01:19:08.264Z"
}